{
  "contractName": "Dex",
  "abi": [
    {
      "anonymous": false,
      "inputs": [
        {
          "indexed": true,
          "internalType": "address",
          "name": "previousOwner",
          "type": "address"
        },
        {
          "indexed": true,
          "internalType": "address",
          "name": "newOwner",
          "type": "address"
        }
      ],
      "name": "OwnershipTransferred",
      "type": "event"
    },
    {
      "inputs": [
        {
          "internalType": "bytes32",
          "name": "ticker",
          "type": "bytes32"
        },
        {
          "internalType": "address",
          "name": "tokenAddress",
          "type": "address"
        }
      ],
      "name": "addToken",
      "outputs": [],
      "stateMutability": "nonpayable",
      "type": "function"
    },
    {
      "inputs": [
        {
          "internalType": "address",
          "name": "",
          "type": "address"
        },
        {
          "internalType": "bytes32",
          "name": "",
          "type": "bytes32"
        }
      ],
      "name": "balances",
      "outputs": [
        {
          "internalType": "uint256",
          "name": "",
          "type": "uint256"
        }
      ],
      "stateMutability": "view",
      "type": "function"
    },
    {
      "inputs": [
        {
          "internalType": "uint256",
          "name": "amount",
          "type": "uint256"
        },
        {
          "internalType": "bytes32",
          "name": "ticker",
          "type": "bytes32"
        }
      ],
      "name": "deposit",
      "outputs": [],
      "stateMutability": "nonpayable",
      "type": "function"
    },
    {
      "inputs": [],
      "name": "depositEth",
      "outputs": [],
      "stateMutability": "payable",
      "type": "function"
    },
    {
      "inputs": [],
      "name": "nextOrderId",
      "outputs": [
        {
          "internalType": "uint256",
          "name": "",
          "type": "uint256"
        }
      ],
      "stateMutability": "view",
      "type": "function"
    },
    {
      "inputs": [],
      "name": "owner",
      "outputs": [
        {
          "internalType": "address",
          "name": "",
          "type": "address"
        }
      ],
      "stateMutability": "view",
      "type": "function"
    },
    {
      "inputs": [],
      "name": "renounceOwnership",
      "outputs": [],
      "stateMutability": "nonpayable",
      "type": "function"
    },
    {
      "inputs": [
        {
          "internalType": "uint256",
          "name": "",
          "type": "uint256"
        }
      ],
      "name": "tokenList",
      "outputs": [
        {
          "internalType": "bytes32",
          "name": "",
          "type": "bytes32"
        }
      ],
      "stateMutability": "view",
      "type": "function"
    },
    {
      "inputs": [
        {
          "internalType": "bytes32",
          "name": "",
          "type": "bytes32"
        }
      ],
      "name": "tokenMapping",
      "outputs": [
        {
          "internalType": "bytes32",
          "name": "ticker",
          "type": "bytes32"
        },
        {
          "internalType": "address",
          "name": "tokenAddress",
          "type": "address"
        }
      ],
      "stateMutability": "view",
      "type": "function"
    },
    {
      "inputs": [
        {
          "internalType": "address",
          "name": "newOwner",
          "type": "address"
        }
      ],
      "name": "transferOwnership",
      "outputs": [],
      "stateMutability": "nonpayable",
      "type": "function"
    },
    {
      "inputs": [
        {
          "internalType": "uint256",
          "name": "amount",
          "type": "uint256"
        },
        {
          "internalType": "bytes32",
          "name": "ticker",
          "type": "bytes32"
        }
      ],
      "name": "withdraw",
      "outputs": [],
      "stateMutability": "nonpayable",
      "type": "function"
    },
    {
      "inputs": [
        {
          "internalType": "uint256",
          "name": "amount",
          "type": "uint256"
        }
      ],
      "name": "withdrawEth",
      "outputs": [],
      "stateMutability": "nonpayable",
      "type": "function"
    },
    {
      "inputs": [
        {
          "internalType": "bytes32",
          "name": "ticker",
          "type": "bytes32"
        },
        {
          "internalType": "enum Dex.Side",
          "name": "side",
          "type": "uint8"
        }
      ],
      "name": "getOrderBook",
      "outputs": [
        {
          "components": [
            {
              "internalType": "uint256",
              "name": "id",
              "type": "uint256"
            },
            {
              "internalType": "address",
              "name": "trader",
              "type": "address"
            },
            {
              "internalType": "enum Dex.Side",
              "name": "side",
              "type": "uint8"
            },
            {
              "internalType": "bytes32",
              "name": "ticker",
              "type": "bytes32"
            },
            {
              "internalType": "uint256",
              "name": "amount",
              "type": "uint256"
            },
            {
              "internalType": "uint256",
              "name": "price",
              "type": "uint256"
            },
            {
              "internalType": "uint256",
              "name": "filled",
              "type": "uint256"
            }
          ],
          "internalType": "struct Dex.Order[]",
          "name": "",
          "type": "tuple[]"
        }
      ],
      "stateMutability": "view",
      "type": "function"
    },
    {
      "inputs": [
        {
          "internalType": "enum Dex.Side",
          "name": "side",
          "type": "uint8"
        },
        {
          "internalType": "bytes32",
          "name": "ticker",
          "type": "bytes32"
        },
        {
          "internalType": "uint256",
          "name": "amount",
          "type": "uint256"
        },
        {
          "internalType": "uint256",
          "name": "price",
          "type": "uint256"
        }
      ],
      "name": "createLimitOrder",
      "outputs": [],
      "stateMutability": "nonpayable",
      "type": "function"
    },
    {
      "inputs": [
        {
          "internalType": "enum Dex.Side",
          "name": "side",
          "type": "uint8"
        },
        {
          "internalType": "bytes32",
          "name": "ticker",
          "type": "bytes32"
        },
        {
          "internalType": "uint256",
          "name": "amount",
          "type": "uint256"
        }
      ],
      "name": "createMarketOrder",
      "outputs": [],
      "stateMutability": "nonpayable",
      "type": "function"
    }
  ],
  "bytecode": "0x608060405260006004553480156200001657600080fd5b50620000376200002b6200003d60201b60201c565b6200004560201b60201c565b62000109565b600033905090565b60008060009054906101000a900473ffffffffffffffffffffffffffffffffffffffff169050816000806101000a81548173ffffffffffffffffffffffffffffffffffffffff021916908373ffffffffffffffffffffffffffffffffffffffff1602179055508173ffffffffffffffffffffffffffffffffffffffff168173ffffffffffffffffffffffffffffffffffffffff167f8be0079c531659141344cd1fd0a4f28419497f9722a3daafe3b4186f6b6457e060405160405180910390a35050565b61365280620001196000396000f3fe6080604052600436106100e85760003560e01c80639776aacf1161008a578063ba58ea6811610059578063ba58ea68146102c0578063c311d049146102fd578063c9630cb014610326578063f2fde38b1461034f576100e8565b80639776aacf1461020857806399ec2f1c146102315780639ead72221461025a578063a8d2021a14610297576100e8565b8063667cb4ba116100c6578063667cb4ba1461015f5780636f3b62f91461019d578063715018a6146101c65780638da5cb5b146101dd576100e8565b80631f14df69146100ed5780632a58b3301461012a578063439370b114610155575b600080fd5b3480156100f957600080fd5b50610114600480360381019061010f9190612b91565b610378565b60405161012191906131a7565b60405180910390f35b34801561013657600080fd5b5061013f61039d565b60405161014c91906131a7565b60405180910390f35b61015d6103a3565b005b34801561016b57600080fd5b5061018660048036038101906101819190612bfe565b61049c565b6040516101949291906130de565b60405180910390f35b3480156101a957600080fd5b506101c460048036038101906101bf9190612cfe565b6104e0565b005b3480156101d257600080fd5b506101db610fc3565b005b3480156101e957600080fd5b506101f261104b565b6040516101ff9190613026565b60405180910390f35b34801561021457600080fd5b5061022f600480360381019061022a9190612c2b565b611074565b005b34801561023d57600080fd5b5061025860048036038101906102539190612cab565b6111af565b005b34801561026657600080fd5b50610281600480360381019061027c9190612d65565b61207f565b60405161028e91906130c3565b60405180910390f35b3480156102a357600080fd5b506102be60048036038101906102b99190612d92565b6120a3565b005b3480156102cc57600080fd5b506102e760048036038101906102e29190612c6b565b61235d565b6040516102f491906130a1565b60405180910390f35b34801561030957600080fd5b50610324600480360381019061031f9190612d65565b6124b6565b005b34801561033257600080fd5b5061034d60048036038101906103489190612d92565b6126cc565b005b34801561035b57600080fd5b5061037660048036038101906103719190612b64565b6128f5565b005b6003602052816000526040600020602052806000526040600020600091509150505481565b60045481565b61042634600360003373ffffffffffffffffffffffffffffffffffffffff1673ffffffffffffffffffffffffffffffffffffffff16815260200190815260200160002060007f45544800000000000000000000000000000000000000000000000000000000008152602001908152602001600020546129ed90919063ffffffff16565b600360003373ffffffffffffffffffffffffffffffffffffffff1673ffffffffffffffffffffffffffffffffffffffff16815260200190815260200160002060007f4554480000000000000000000000000000000000000000000000000000000000815260200190815260200160002081905550565b60016020528060005260406000206000915090508060000154908060010160009054906101000a900473ffffffffffffffffffffffffffffffffffffffff16905082565b600060018111156104f4576104f3613414565b5b84600181111561050757610506613414565b5b14156105d7576105208183612a0390919063ffffffff16565b600360003373ffffffffffffffffffffffffffffffffffffffff1673ffffffffffffffffffffffffffffffffffffffff16815260200190815260200160002060007f455448000000000000000000000000000000000000000000000000000000000081526020019081526020016000205410156105d2576040517f08c379a00000000000000000000000000000000000000000000000000000000081526004016105c990613167565b60405180910390fd5b6106aa565b6001808111156105ea576105e9613414565b5b8460018111156105fd576105fc613414565b5b14156106a9576106168183612a0390919063ffffffff16565b600360003373ffffffffffffffffffffffffffffffffffffffff1673ffffffffffffffffffffffffffffffffffffffff16815260200190815260200160002060008581526020019081526020016000205410156106a8576040517f08c379a000000000000000000000000000000000000000000000000000000000815260040161069f90613167565b60405180910390fd5b5b5b60006005600085815260200190815260200160002060008660018111156106d4576106d3613414565b5b81526020019081526020016000209050806040518060e0016040528060045481526020013373ffffffffffffffffffffffffffffffffffffffff16815260200187600181111561072757610726613414565b5b8152602001868152602001858152602001848152602001600081525090806001815401808255809150506001900390600052602060002090600602016000909190919091506000820151816000015560208201518160010160006101000a81548173ffffffffffffffffffffffffffffffffffffffff021916908373ffffffffffffffffffffffffffffffffffffffff16021790555060408201518160010160146101000a81548160ff021916908360018111156107e8576107e7613414565b5b0217905550606082015181600201556080820151816003015560a0820151816004015560c08201518160050155505060008082805490501161082b57600061083d565b6001828054905061083c91906132c7565b5b90506000600181111561085357610852613414565b5b86600181111561086657610865613414565b5b1415610bf3576001828054905061087d91906132c7565b90505b6000811115610bee578160018261089791906132c7565b815481106108a8576108a7613472565b5b9060005260206000209060060201600401548282815481106108cd576108cc613472565b5b9060005260206000209060060201600401541115610bdb5760008282815481106108fa576108f9613472565b5b90600052602060002090600602016040518060e0016040529081600082015481526020016001820160009054906101000a900473ffffffffffffffffffffffffffffffffffffffff1673ffffffffffffffffffffffffffffffffffffffff1673ffffffffffffffffffffffffffffffffffffffff1681526020016001820160149054906101000a900460ff16600181111561099857610997613414565b5b60018111156109aa576109a9613414565b5b81526020016002820154815260200160038201548152602001600482015481526020016005820154815250509050826001836109e691906132c7565b815481106109f7576109f6613472565b5b9060005260206000209060060201838381548110610a1857610a17613472565b5b9060005260206000209060060201600082015481600001556001820160009054906101000a900473ffffffffffffffffffffffffffffffffffffffff168160010160006101000a81548173ffffffffffffffffffffffffffffffffffffffff021916908373ffffffffffffffffffffffffffffffffffffffff1602179055506001820160149054906101000a900460ff168160010160146101000a81548160ff02191690836001811115610acf57610ace613414565b5b0217905550600282015481600201556003820154816003015560048201548160040155600582015481600501559050508083600184610b0e91906132c7565b81548110610b1f57610b1e613472565b5b90600052602060002090600602016000820151816000015560208201518160010160006101000a81548173ffffffffffffffffffffffffffffffffffffffff021916908373ffffffffffffffffffffffffffffffffffffffff16021790555060408201518160010160146101000a81548160ff02191690836001811115610ba957610ba8613414565b5b0217905550606082015181600201556080820151816003015560a0820151816004015560c08201518160050155905050505b8080610be690613372565b915050610880565b610fa3565b600180811115610c0657610c05613414565b5b866001811115610c1957610c18613414565b5b1415610fa25760018280549050610c3091906132c7565b90505b6000811115610fa15781600182610c4a91906132c7565b81548110610c5b57610c5a613472565b5b906000526020600020906006020160040154828281548110610c8057610c7f613472565b5b9060005260206000209060060201600401541015610f8e576000828281548110610cad57610cac613472565b5b90600052602060002090600602016040518060e0016040529081600082015481526020016001820160009054906101000a900473ffffffffffffffffffffffffffffffffffffffff1673ffffffffffffffffffffffffffffffffffffffff1673ffffffffffffffffffffffffffffffffffffffff1681526020016001820160149054906101000a900460ff166001811115610d4b57610d4a613414565b5b6001811115610d5d57610d5c613414565b5b8152602001600282015481526020016003820154815260200160048201548152602001600582015481525050905082600183610d9991906132c7565b81548110610daa57610da9613472565b5b9060005260206000209060060201838381548110610dcb57610dca613472565b5b9060005260206000209060060201600082015481600001556001820160009054906101000a900473ffffffffffffffffffffffffffffffffffffffff168160010160006101000a81548173ffffffffffffffffffffffffffffffffffffffff021916908373ffffffffffffffffffffffffffffffffffffffff1602179055506001820160149054906101000a900460ff168160010160146101000a81548160ff02191690836001811115610e8257610e81613414565b5b0217905550600282015481600201556003820154816003015560048201548160040155600582015481600501559050508083600184610ec191906132c7565b81548110610ed257610ed1613472565b5b90600052602060002090600602016000820151816000015560208201518160010160006101000a81548173ffffffffffffffffffffffffffffffffffffffff021916908373ffffffffffffffffffffffffffffffffffffffff16021790555060408201518160010160146101000a81548160ff02191690836001811115610f5c57610f5b613414565b5b0217905550606082015181600201556080820151816003015560a0820151816004015560c08201518160050155905050505b8080610f9990613372565b915050610c33565b5b5b60046000815480929190610fb69061339c565b9190505550505050505050565b610fcb612a19565b73ffffffffffffffffffffffffffffffffffffffff16610fe961104b565b73ffffffffffffffffffffffffffffffffffffffff161461103f576040517f08c379a000000000000000000000000000000000000000000000000000000000815260040161103690613187565b60405180910390fd5b6110496000612a21565b565b60008060009054906101000a900473ffffffffffffffffffffffffffffffffffffffff16905090565b61107c612a19565b73ffffffffffffffffffffffffffffffffffffffff1661109a61104b565b73ffffffffffffffffffffffffffffffffffffffff16146110f0576040517f08c379a00000000000000000000000000000000000000000000000000000000081526004016110e790613187565b60405180910390fd5b60405180604001604052808381526020018273ffffffffffffffffffffffffffffffffffffffff16815250600160008481526020019081526020016000206000820151816000015560208201518160010160006101000a81548173ffffffffffffffffffffffffffffffffffffffff021916908373ffffffffffffffffffffffffffffffffffffffff16021790555090505060028290806001815401808255809150506001900390600052602060002001600090919091909150555050565b6001808111156111c2576111c1613414565b5b8360018111156111d5576111d4613414565b5b141561126f5780600360003373ffffffffffffffffffffffffffffffffffffffff1673ffffffffffffffffffffffffffffffffffffffff168152602001908152602001600020600084815260200190815260200160002054101561126e576040517f08c379a000000000000000000000000000000000000000000000000000000000815260040161126590613127565b60405180910390fd5b5b600080600181111561128457611283613414565b5b84600181111561129757611296613414565b5b146112a35760006112a6565b60015b60ff169050600060056000858152602001908152602001600020600083815260200190815260200160002090506000805b8280549050811080156112e957508482105b15611e2b5760006113038387612ae590919063ffffffff16565b9050600061136285848154811061131d5761131c613472565b5b90600052602060002090600602016005015486858154811061134257611341613472565b5b906000526020600020906006020160030154612ae590919063ffffffff16565b90506000828211156113765782905061137a565b8190505b61138d81866129ed90919063ffffffff16565b94506113c6818786815481106113a6576113a5613472565b5b9060005260206000209060060201600501546129ed90919063ffffffff16565b8685815481106113d9576113d8613472565b5b906000526020600020906006020160050181905550600061142787868154811061140657611405613472565b5b90600052602060002090600602016004015483612a0390919063ffffffff16565b90506000600181111561143d5761143c613414565b5b8b60018111156114505761144f613414565b5b141561197a5761148d87868154811061146c5761146b613472565b5b90600052602060002090600602016004015483612a0390919063ffffffff16565b600360003373ffffffffffffffffffffffffffffffffffffffff1673ffffffffffffffffffffffffffffffffffffffff16815260200190815260200160002060007f4554480000000000000000000000000000000000000000000000000000000000815260200190815260200160002054101561150957600080fd5b61156c82600360003373ffffffffffffffffffffffffffffffffffffffff1673ffffffffffffffffffffffffffffffffffffffff16815260200190815260200160002060008d8152602001908152602001600020546129ed90919063ffffffff16565b600360003373ffffffffffffffffffffffffffffffffffffffff1673ffffffffffffffffffffffffffffffffffffffff16815260200190815260200160002060008c81526020019081526020016000208190555061164381600360003373ffffffffffffffffffffffffffffffffffffffff1673ffffffffffffffffffffffffffffffffffffffff16815260200190815260200160002060007f4554480000000000000000000000000000000000000000000000000000000000815260200190815260200160002054612ae590919063ffffffff16565b600360003373ffffffffffffffffffffffffffffffffffffffff1673ffffffffffffffffffffffffffffffffffffffff16815260200190815260200160002060007f455448000000000000000000000000000000000000000000000000000000000081526020019081526020016000208190555061175e82600360008a89815481106116d2576116d1613472565b5b906000526020600020906006020160010160009054906101000a900473ffffffffffffffffffffffffffffffffffffffff1673ffffffffffffffffffffffffffffffffffffffff1673ffffffffffffffffffffffffffffffffffffffff16815260200190815260200160002060008d815260200190815260200160002054612ae590919063ffffffff16565b6003600089888154811061177557611774613472565b5b906000526020600020906006020160010160009054906101000a900473ffffffffffffffffffffffffffffffffffffffff1673ffffffffffffffffffffffffffffffffffffffff1673ffffffffffffffffffffffffffffffffffffffff16815260200190815260200160002060008c8152602001908152602001600020819055506118bd81600360008a898154811061181157611810613472565b5b906000526020600020906006020160010160009054906101000a900473ffffffffffffffffffffffffffffffffffffffff1673ffffffffffffffffffffffffffffffffffffffff1673ffffffffffffffffffffffffffffffffffffffff16815260200190815260200160002060007f45544800000000000000000000000000000000000000000000000000000000008152602001908152602001600020546129ed90919063ffffffff16565b600360008988815481106118d4576118d3613472565b5b906000526020600020906006020160010160009054906101000a900473ffffffffffffffffffffffffffffffffffffffff1673ffffffffffffffffffffffffffffffffffffffff1673ffffffffffffffffffffffffffffffffffffffff16815260200190815260200160002060007f4554480000000000000000000000000000000000000000000000000000000000815260200190815260200160002081905550611e14565b60018081111561198d5761198c613414565b5b8b60018111156119a05761199f613414565b5b1415611e1357611a0982600360003373ffffffffffffffffffffffffffffffffffffffff1673ffffffffffffffffffffffffffffffffffffffff16815260200190815260200160002060008d815260200190815260200160002054612ae590919063ffffffff16565b600360003373ffffffffffffffffffffffffffffffffffffffff1673ffffffffffffffffffffffffffffffffffffffff16815260200190815260200160002060008c815260200190815260200160002081905550611ae081600360003373ffffffffffffffffffffffffffffffffffffffff1673ffffffffffffffffffffffffffffffffffffffff16815260200190815260200160002060007f45544800000000000000000000000000000000000000000000000000000000008152602001908152602001600020546129ed90919063ffffffff16565b600360003373ffffffffffffffffffffffffffffffffffffffff1673ffffffffffffffffffffffffffffffffffffffff16815260200190815260200160002060007f4554480000000000000000000000000000000000000000000000000000000000815260200190815260200160002081905550611bfb82600360008a8981548110611b6f57611b6e613472565b5b906000526020600020906006020160010160009054906101000a900473ffffffffffffffffffffffffffffffffffffffff1673ffffffffffffffffffffffffffffffffffffffff1673ffffffffffffffffffffffffffffffffffffffff16815260200190815260200160002060008d8152602001908152602001600020546129ed90919063ffffffff16565b60036000898881548110611c1257611c11613472565b5b906000526020600020906006020160010160009054906101000a900473ffffffffffffffffffffffffffffffffffffffff1673ffffffffffffffffffffffffffffffffffffffff1673ffffffffffffffffffffffffffffffffffffffff16815260200190815260200160002060008c815260200190815260200160002081905550611d5a81600360008a8981548110611cae57611cad613472565b5b906000526020600020906006020160010160009054906101000a900473ffffffffffffffffffffffffffffffffffffffff1673ffffffffffffffffffffffffffffffffffffffff1673ffffffffffffffffffffffffffffffffffffffff16815260200190815260200160002060007f4554480000000000000000000000000000000000000000000000000000000000815260200190815260200160002054612ae590919063ffffffff16565b60036000898881548110611d7157611d70613472565b5b906000526020600020906006020160010160009054906101000a900473ffffffffffffffffffffffffffffffffffffffff1673ffffffffffffffffffffffffffffffffffffffff1673ffffffffffffffffffffffffffffffffffffffff16815260200190815260200160002060007f45544800000000000000000000000000000000000000000000000000000000008152602001908152602001600020819055505b5b505050508080611e239061339c565b9150506112d7565b505b60008280549050118015611e8a575081600081548110611e5057611e4f613472565b5b90600052602060002090600602016003015482600081548110611e7657611e75613472565b5b906000526020600020906006020160050154145b156120775760005b60018380549050611ea391906132c7565b811015611fe45782600182611eb89190613217565b81548110611ec957611ec8613472565b5b9060005260206000209060060201838281548110611eea57611ee9613472565b5b9060005260206000209060060201600082015481600001556001820160009054906101000a900473ffffffffffffffffffffffffffffffffffffffff168160010160006101000a81548173ffffffffffffffffffffffffffffffffffffffff021916908373ffffffffffffffffffffffffffffffffffffffff1602179055506001820160149054906101000a900460ff168160010160146101000a81548160ff02191690836001811115611fa157611fa0613414565b5b0217905550600282015481600201556003820154816003015560048201548160040155600582015481600501559050508080611fdc9061339c565b915050611e92565b5081805480611ff657611ff5613443565b5b60019003818190600052602060002090600602016000808201600090556001820160006101000a81549073ffffffffffffffffffffffffffffffffffffffff02191690556001820160146101000a81549060ff0219169055600282016000905560038201600090556004820160009055600582016000905550509055611e2d565b505050505050565b6002818154811061208f57600080fd5b906000526020600020016000915090505481565b80600073ffffffffffffffffffffffffffffffffffffffff166001600083815260200190815260200160002060010160009054906101000a900473ffffffffffffffffffffffffffffffffffffffff1673ffffffffffffffffffffffffffffffffffffffff16141561214a576040517f08c379a000000000000000000000000000000000000000000000000000000000815260040161214190613147565b60405180910390fd5b82600360003373ffffffffffffffffffffffffffffffffffffffff1673ffffffffffffffffffffffffffffffffffffffff16815260200190815260200160002060008481526020019081526020016000205410156121dd576040517f08c379a00000000000000000000000000000000000000000000000000000000081526004016121d490613127565b60405180910390fd5b61224083600360003373ffffffffffffffffffffffffffffffffffffffff1673ffffffffffffffffffffffffffffffffffffffff168152602001908152602001600020600085815260200190815260200160002054612ae590919063ffffffff16565b600360003373ffffffffffffffffffffffffffffffffffffffff1673ffffffffffffffffffffffffffffffffffffffff1681526020019081526020016000206000848152602001908152602001600020819055506001600083815260200190815260200160002060010160009054906101000a900473ffffffffffffffffffffffffffffffffffffffff1673ffffffffffffffffffffffffffffffffffffffff1663a9059cbb33856040518363ffffffff1660e01b8152600401612305929190613078565b602060405180830381600087803b15801561231f57600080fd5b505af1158015612333573d6000803e3d6000fd5b505050506040513d601f19601f820116820180604052508101906123579190612bd1565b50505050565b606060056000848152602001908152602001600020600083600181111561238757612386613414565b5b8152602001908152602001600020805480602002602001604051908101604052809291908181526020016000905b828210156124aa57838290600052602060002090600602016040518060e0016040529081600082015481526020016001820160009054906101000a900473ffffffffffffffffffffffffffffffffffffffff1673ffffffffffffffffffffffffffffffffffffffff1673ffffffffffffffffffffffffffffffffffffffff1681526020016001820160149054906101000a900460ff16600181111561245d5761245c613414565b5b600181111561246f5761246e613414565b5b8152602001600282015481526020016003820154815260200160048201548152602001600582015481525050815260200190600101906123b5565b50505050905092915050565b80600360003373ffffffffffffffffffffffffffffffffffffffff1673ffffffffffffffffffffffffffffffffffffffff16815260200190815260200160002060007f45544800000000000000000000000000000000000000000000000000000000008152602001908152602001600020541015612569576040517f08c379a000000000000000000000000000000000000000000000000000000000815260040161256090613127565b60405180910390fd5b6125ec81600360003373ffffffffffffffffffffffffffffffffffffffff1673ffffffffffffffffffffffffffffffffffffffff16815260200190815260200160002060007f4554480000000000000000000000000000000000000000000000000000000000815260200190815260200160002054612ae590919063ffffffff16565b600360003373ffffffffffffffffffffffffffffffffffffffff1673ffffffffffffffffffffffffffffffffffffffff16815260200190815260200160002060007f45544800000000000000000000000000000000000000000000000000000000008152602001908152602001600020819055503373ffffffffffffffffffffffffffffffffffffffff168160405161268490613011565b60006040518083038185875af1925050503d80600081146126c1576040519150601f19603f3d011682016040523d82523d6000602084013e6126c6565b606091505b50505050565b80600073ffffffffffffffffffffffffffffffffffffffff166001600083815260200190815260200160002060010160009054906101000a900473ffffffffffffffffffffffffffffffffffffffff1673ffffffffffffffffffffffffffffffffffffffff161415612773576040517f08c379a000000000000000000000000000000000000000000000000000000000815260040161276a90613147565b60405180910390fd5b6001600083815260200190815260200160002060010160009054906101000a900473ffffffffffffffffffffffffffffffffffffffff1673ffffffffffffffffffffffffffffffffffffffff166323b872dd3330866040518463ffffffff1660e01b81526004016127e693929190613041565b602060405180830381600087803b15801561280057600080fd5b505af1158015612814573d6000803e3d6000fd5b505050506040513d601f19601f820116820180604052508101906128389190612bd1565b5061289c83600360003373ffffffffffffffffffffffffffffffffffffffff1673ffffffffffffffffffffffffffffffffffffffff1681526020019081526020016000206000858152602001908152602001600020546129ed90919063ffffffff16565b600360003373ffffffffffffffffffffffffffffffffffffffff1673ffffffffffffffffffffffffffffffffffffffff168152602001908152602001600020600084815260200190815260200160002081905550505050565b6128fd612a19565b73ffffffffffffffffffffffffffffffffffffffff1661291b61104b565b73ffffffffffffffffffffffffffffffffffffffff1614612971576040517f08c379a000000000000000000000000000000000000000000000000000000000815260040161296890613187565b60405180910390fd5b600073ffffffffffffffffffffffffffffffffffffffff168173ffffffffffffffffffffffffffffffffffffffff1614156129e1576040517f08c379a00000000000000000000000000000000000000000000000000000000081526004016129d890613107565b60405180910390fd5b6129ea81612a21565b50565b600081836129fb9190613217565b905092915050565b60008183612a11919061326d565b905092915050565b600033905090565b60008060009054906101000a900473ffffffffffffffffffffffffffffffffffffffff169050816000806101000a81548173ffffffffffffffffffffffffffffffffffffffff021916908373ffffffffffffffffffffffffffffffffffffffff1602179055508173ffffffffffffffffffffffffffffffffffffffff168173ffffffffffffffffffffffffffffffffffffffff167f8be0079c531659141344cd1fd0a4f28419497f9722a3daafe3b4186f6b6457e060405160405180910390a35050565b60008183612af391906132c7565b905092915050565b600081359050612b0a816135b0565b92915050565b600081519050612b1f816135c7565b92915050565b600081359050612b34816135de565b92915050565b600081359050612b49816135f5565b92915050565b600081359050612b5e81613605565b92915050565b600060208284031215612b7a57612b796134a1565b5b6000612b8884828501612afb565b91505092915050565b60008060408385031215612ba857612ba76134a1565b5b6000612bb685828601612afb565b9250506020612bc785828601612b25565b9150509250929050565b600060208284031215612be757612be66134a1565b5b6000612bf584828501612b10565b91505092915050565b600060208284031215612c1457612c136134a1565b5b6000612c2284828501612b25565b91505092915050565b60008060408385031215612c4257612c416134a1565b5b6000612c5085828601612b25565b9250506020612c6185828601612afb565b9150509250929050565b60008060408385031215612c8257612c816134a1565b5b6000612c9085828601612b25565b9250506020612ca185828601612b3a565b9150509250929050565b600080600060608486031215612cc457612cc36134a1565b5b6000612cd286828701612b3a565b9350506020612ce386828701612b25565b9250506040612cf486828701612b4f565b9150509250925092565b60008060008060808587031215612d1857612d176134a1565b5b6000612d2687828801612b3a565b9450506020612d3787828801612b25565b9350506040612d4887828801612b4f565b9250506060612d5987828801612b4f565b91505092959194509250565b600060208284031215612d7b57612d7a6134a1565b5b6000612d8984828501612b4f565b91505092915050565b60008060408385031215612da957612da86134a1565b5b6000612db785828601612b4f565b9250506020612dc885828601612b25565b9150509250929050565b6000612dde8383612f65565b60e08301905092915050565b612df3816132fb565b82525050565b612e02816132fb565b82525050565b6000612e13826131d2565b612e1d81856131ea565b9350612e28836131c2565b8060005b83811015612e59578151612e408882612dd2565b9750612e4b836131dd565b925050600181019050612e2c565b5085935050505092915050565b612e6f81613319565b82525050565b612e7e81613319565b82525050565b612e8d81613360565b82525050565b6000612ea0602683613206565b9150612eab826134a6565b604082019050919050565b6000612ec3601483613206565b9150612ece826134f5565b602082019050919050565b6000612ee6601483613206565b9150612ef18261351e565b602082019050919050565b6000612f09601f83613206565b9150612f1482613547565b602082019050919050565b6000612f2c602083613206565b9150612f3782613570565b602082019050919050565b6000612f4f6000836131fb565b9150612f5a82613599565b600082019050919050565b60e082016000820151612f7b6000850182612ff3565b506020820151612f8e6020850182612dea565b506040820151612fa16040850182612e84565b506060820151612fb46060850182612e66565b506080820151612fc76080850182612ff3565b5060a0820151612fda60a0850182612ff3565b5060c0820151612fed60c0850182612ff3565b50505050565b612ffc81613356565b82525050565b61300b81613356565b82525050565b600061301c82612f42565b9150819050919050565b600060208201905061303b6000830184612df9565b92915050565b60006060820190506130566000830186612df9565b6130636020830185612df9565b6130706040830184613002565b949350505050565b600060408201905061308d6000830185612df9565b61309a6020830184613002565b9392505050565b600060208201905081810360008301526130bb8184612e08565b905092915050565b60006020820190506130d86000830184612e75565b92915050565b60006040820190506130f36000830185612e75565b6131006020830184612df9565b9392505050565b6000602082019050818103600083015261312081612e93565b9050919050565b6000602082019050818103600083015261314081612eb6565b9050919050565b6000602082019050818103600083015261316081612ed9565b9050919050565b6000602082019050818103600083015261318081612efc565b9050919050565b600060208201905081810360008301526131a081612f1f565b9050919050565b60006020820190506131bc6000830184613002565b92915050565b6000819050602082019050919050565b600081519050919050565b6000602082019050919050565b600082825260208201905092915050565b600081905092915050565b600082825260208201905092915050565b600061322282613356565b915061322d83613356565b9250827fffffffffffffffffffffffffffffffffffffffffffffffffffffffffffffffff03821115613262576132616133e5565b5b828201905092915050565b600061327882613356565b915061328383613356565b9250817fffffffffffffffffffffffffffffffffffffffffffffffffffffffffffffffff04831182151516156132bc576132bb6133e5565b5b828202905092915050565b60006132d282613356565b91506132dd83613356565b9250828210156132f0576132ef6133e5565b5b828203905092915050565b600061330682613336565b9050919050565b60008115159050919050565b6000819050919050565b60008190506133318261359c565b919050565b600073ffffffffffffffffffffffffffffffffffffffff82169050919050565b6000819050919050565b600061336b82613323565b9050919050565b600061337d82613356565b91506000821415613391576133906133e5565b5b600182039050919050565b60006133a782613356565b91507fffffffffffffffffffffffffffffffffffffffffffffffffffffffffffffffff8214156133da576133d96133e5565b5b600182019050919050565b7f4e487b7100000000000000000000000000000000000000000000000000000000600052601160045260246000fd5b7f4e487b7100000000000000000000000000000000000000000000000000000000600052602160045260246000fd5b7f4e487b7100000000000000000000000000000000000000000000000000000000600052603160045260246000fd5b7f4e487b7100000000000000000000000000000000000000000000000000000000600052603260045260246000fd5b600080fd5b7f4f776e61626c653a206e6577206f776e657220697320746865207a65726f206160008201527f6464726573730000000000000000000000000000000000000000000000000000602082015250565b7f496e73756666696369656e742062616c616e6365000000000000000000000000600082015250565b7f546f6b656e20646f6573206e6f74206578697374000000000000000000000000600082015250565b7f53656c6c65722068617320696e73756666696369656e742062616c616e636500600082015250565b7f4f776e61626c653a2063616c6c6572206973206e6f7420746865206f776e6572600082015250565b50565b600281106135ad576135ac613414565b5b50565b6135b9816132fb565b81146135c457600080fd5b50565b6135d08161330d565b81146135db57600080fd5b50565b6135e781613319565b81146135f257600080fd5b50565b6002811061360257600080fd5b50565b61360e81613356565b811461361957600080fd5b5056fea26469706673582212208c6bb5c1f1a6e81eeaf93e5e44c54720a9658bdb9f8e7dfa5ae22db21cd9d6a964736f6c63430008070033",
  "immutableReferences": {},
  "source": "// SPDX-License-Identifier: MIT\n\npragma solidity ^0.8.0;\npragma experimental ABIEncoderV2;\n\nimport \"./Wallet.sol\";\n\ncontract Dex is Wallet {\n    using SafeMath for uint256;\n\n    enum Side {\n        BUY,\n        SELL\n    }\n\n    struct Order {\n        uint256 id;\n        address trader;\n        Side side;\n        bytes32 ticker;\n        uint256 amount;\n        uint256 price;\n        uint256 filled;\n    }\n\n    uint256 public nextOrderId = 0;\n\n    mapping(bytes32 => mapping(uint256 => Order[])) orderBook;\n\n    function getOrderBook(bytes32 ticker, Side side)\n        public\n        view\n        returns (Order[] memory)\n    {\n        return orderBook[ticker][uint256(side)];\n    }\n\n    function createLimitOrder(\n        Side side,\n        bytes32 ticker,\n        uint256 amount,\n        uint256 price\n    ) public {\n        if (side == Side.BUY) {\n            require(\n                balances[msg.sender][\"ETH\"] >= amount.mul(price),\n                \"Seller has insufficient balance\"\n            );\n        } else if (side == Side.SELL) {\n            require(\n                balances[msg.sender][ticker] >= amount.mul(price),\n                \"Seller has insufficient balance\"\n            );\n        }\n\n        Order[] storage orders = orderBook[ticker][uint256(side)];\n\n        orders.push(\n            Order(nextOrderId, msg.sender, side, ticker, amount, price, 0)\n        );\n\n        // Bubble Sort:\n        // The BUY order book should be ordered on price from highest to lowest starting at index 0\n        uint256 i = orders.length > 0 ? orders.length - 1 : 0;\n\n        if (side == Side.BUY) {\n            for (i = orders.length - 1; i > 0; i--) {\n                if (orders[i].price > orders[i - 1].price) {\n                    Order memory orderToMove = orders[i];\n                    orders[i] = orders[i - 1];\n                    orders[i - 1] = orderToMove;\n                }\n            }\n            // The SELL order book should be ordered on price from lowest to highest starting at index 0\n        } else if (side == Side.SELL) {\n            for (i = orders.length - 1; i > 0; i--) {\n                if (orders[i].price < orders[i - 1].price) {\n                    Order memory orderToMove = orders[i];\n                    orders[i] = orders[i - 1];\n                    orders[i - 1] = orderToMove;\n                }\n            }\n        }\n\n        nextOrderId++;\n    }\n\n    function createMarketOrder(\n        Side side,\n        bytes32 ticker,\n        uint256 amount\n    ) public {\n        if (side == Side.SELL) {\n          require(balances[msg.sender][ticker] >= amount, \"Insufficient balance\");\n        }\n        \n        uint256 orderBookSide;\n        orderBookSide = side == Side.BUY ? 1 : 0;\n        Order[] storage orders = orderBook[ticker][orderBookSide];\n\n        uint256 totalFilled = 0;\n\n        // Loop through the order book:\n        for (uint256 i = 0; i < orders.length && totalFilled < amount; i++) {\n            uint leftToFill = amount.sub(totalFilled);\n            uint availableToFill = orders[i].amount.sub(orders[i].filled);\n            uint filled = 0;\n\n            // How much we can fill from order[i]\n            if (availableToFill > leftToFill) {\n              filled = leftToFill; // Fill the entire market order\n            } else {\n              filled = availableToFill; // Fill as much as is available in limit order[i]\n            }\n\n            // update totalFilled\n            totalFilled = totalFilled.add(filled);\n            orders[i].filled = orders[i].filled.add(filled);\n            uint cost = filled.mul(orders[i].price);\n            \n            // Execute the trader & shift balances between buyer/seller\n            if (side == Side.BUY) {\n              // Verify that the buyer has enough ETH to cover the purchase (require)\n              require(balances[msg.sender][\"ETH\"] >= filled.mul(orders[i].price));\n              // msg.sender is the buyer\n              // Execute the trade -> transfer ETH from Buyer to Seller\n              // and transfer tokens from Seller to Buyer\n              balances[msg.sender][ticker] = balances[msg.sender][ticker].add(filled);\n              balances[msg.sender][\"ETH\"] = balances[msg.sender][\"ETH\"].sub(cost);\n\n              balances[orders[i].trader][ticker] = balances[orders[i].trader][ticker].sub(filled);\n              balances[orders[i].trader][\"ETH\"] = balances[orders[i].trader][\"ETH\"].add(cost);\n            } else if (side == Side.SELL) {\n              // msg.sender is the seller\n              // Execute the trade -> transfer ETH from Buyer to Seller\n              // and transfer tokens from Seller to Buyer\n              balances[msg.sender][ticker] = balances[msg.sender][ticker].sub(filled);\n              balances[msg.sender][\"ETH\"] = balances[msg.sender][\"ETH\"].add(cost);\n\n              balances[orders[i].trader][ticker] = balances[orders[i].trader][ticker].add(filled);\n              balances[orders[i].trader][\"ETH\"] = balances[orders[i].trader][\"ETH\"].sub(cost);\n            }\n        }\n\n        // Remove 100% filled orders from the order book:\n        while (orders.length > 0 && orders[0].filled == orders[0].amount) {\n          // Remove top element in the orders array by overwriting every element\n          // with the next elemtn in the order list\n          for (uint256 i = 0; i < orders.length - 1; i++) {\n            orders[i] = orders[i + 1];\n          }\n          orders.pop();\n        }\n        \n    }\n}\n",
  "sourcePath": "/Users/local-admin/repos/ivan-smart-contracts/project_201/dex/contracts/Dex.sol",
  "compiler": {
    "name": "solc",
    "version": "0.8.7+commit.e28d00a7.Emscripten.clang"
  },
  "schemaVersion": "3.4.3",
  "updatedAt": "2021-08-30T14:20:59.880Z",
  "devdoc": {
    "kind": "dev",
    "methods": {
      "owner()": {
        "details": "Returns the address of the current owner."
      },
      "renounceOwnership()": {
        "details": "Leaves the contract without owner. It will not be possible to call `onlyOwner` functions anymore. Can only be called by the current owner. NOTE: Renouncing ownership will leave the contract without an owner, thereby removing any functionality that is only available to the owner."
      },
      "transferOwnership(address)": {
        "details": "Transfers ownership of the contract to a new account (`newOwner`). Can only be called by the current owner."
      }
    },
    "version": 1
  },
  "userdoc": {
    "kind": "user",
    "methods": {},
    "version": 1
  }
}