{
  "contractName": "Dex",
  "abi": [
    {
      "anonymous": false,
      "inputs": [
        {
          "indexed": true,
          "internalType": "address",
          "name": "previousOwner",
          "type": "address"
        },
        {
          "indexed": true,
          "internalType": "address",
          "name": "newOwner",
          "type": "address"
        }
      ],
      "name": "OwnershipTransferred",
      "type": "event"
    },
    {
      "inputs": [
        {
          "internalType": "bytes32",
          "name": "ticker",
          "type": "bytes32"
        },
        {
          "internalType": "address",
          "name": "tokenAddress",
          "type": "address"
        }
      ],
      "name": "addToken",
      "outputs": [],
      "stateMutability": "nonpayable",
      "type": "function"
    },
    {
      "inputs": [
        {
          "internalType": "address",
          "name": "",
          "type": "address"
        },
        {
          "internalType": "bytes32",
          "name": "",
          "type": "bytes32"
        }
      ],
      "name": "balances",
      "outputs": [
        {
          "internalType": "uint256",
          "name": "",
          "type": "uint256"
        }
      ],
      "stateMutability": "view",
      "type": "function",
      "constant": true
    },
    {
      "inputs": [
        {
          "internalType": "uint256",
          "name": "amount",
          "type": "uint256"
        },
        {
          "internalType": "bytes32",
          "name": "ticker",
          "type": "bytes32"
        }
      ],
      "name": "deposit",
      "outputs": [],
      "stateMutability": "nonpayable",
      "type": "function"
    },
    {
      "inputs": [],
      "name": "owner",
      "outputs": [
        {
          "internalType": "address",
          "name": "",
          "type": "address"
        }
      ],
      "stateMutability": "view",
      "type": "function",
      "constant": true
    },
    {
      "inputs": [],
      "name": "renounceOwnership",
      "outputs": [],
      "stateMutability": "nonpayable",
      "type": "function"
    },
    {
      "inputs": [
        {
          "internalType": "uint256",
          "name": "",
          "type": "uint256"
        }
      ],
      "name": "tokenList",
      "outputs": [
        {
          "internalType": "bytes32",
          "name": "",
          "type": "bytes32"
        }
      ],
      "stateMutability": "view",
      "type": "function",
      "constant": true
    },
    {
      "inputs": [
        {
          "internalType": "bytes32",
          "name": "",
          "type": "bytes32"
        }
      ],
      "name": "tokenMapping",
      "outputs": [
        {
          "internalType": "bytes32",
          "name": "ticker",
          "type": "bytes32"
        },
        {
          "internalType": "address",
          "name": "tokenAddress",
          "type": "address"
        }
      ],
      "stateMutability": "view",
      "type": "function",
      "constant": true
    },
    {
      "inputs": [
        {
          "internalType": "address",
          "name": "newOwner",
          "type": "address"
        }
      ],
      "name": "transferOwnership",
      "outputs": [],
      "stateMutability": "nonpayable",
      "type": "function"
    },
    {
      "inputs": [
        {
          "internalType": "uint256",
          "name": "amount",
          "type": "uint256"
        },
        {
          "internalType": "bytes32",
          "name": "ticker",
          "type": "bytes32"
        }
      ],
      "name": "withdraw",
      "outputs": [],
      "stateMutability": "nonpayable",
      "type": "function"
    },
    {
      "inputs": [
        {
          "internalType": "bytes32",
          "name": "ticker",
          "type": "bytes32"
        },
        {
          "internalType": "enum Dex.Side",
          "name": "side",
          "type": "uint8"
        }
      ],
      "name": "getOrderBook",
      "outputs": [
        {
          "components": [
            {
              "internalType": "uint256",
              "name": "id",
              "type": "uint256"
            },
            {
              "internalType": "address",
              "name": "trader",
              "type": "address"
            },
            {
              "internalType": "enum Dex.Side",
              "name": "side",
              "type": "uint8"
            },
            {
              "internalType": "bytes32",
              "name": "ticker",
              "type": "bytes32"
            },
            {
              "internalType": "uint256",
              "name": "amount",
              "type": "uint256"
            },
            {
              "internalType": "uint256",
              "name": "price",
              "type": "uint256"
            }
          ],
          "internalType": "struct Dex.Order[]",
          "name": "",
          "type": "tuple[]"
        }
      ],
      "stateMutability": "view",
      "type": "function",
      "constant": true
    },
    {
      "inputs": [],
      "name": "createLimitOrder",
      "outputs": [],
      "stateMutability": "nonpayable",
      "type": "function"
    }
  ],
  "bytecode": "0x608060405234801561001057600080fd5b5061002d61002261003260201b60201c565b61003a60201b60201c565b6100fe565b600033905090565b60008060009054906101000a900473ffffffffffffffffffffffffffffffffffffffff169050816000806101000a81548173ffffffffffffffffffffffffffffffffffffffff021916908373ffffffffffffffffffffffffffffffffffffffff1602179055508173ffffffffffffffffffffffffffffffffffffffff168173ffffffffffffffffffffffffffffffffffffffff167f8be0079c531659141344cd1fd0a4f28419497f9722a3daafe3b4186f6b6457e060405160405180910390a35050565b61155b8061010d6000396000f3fe608060405234801561001057600080fd5b50600436106100a95760003560e01c80639ead7222116100715780639ead722214610153578063a87f014614610183578063a8d2021a1461018d578063ba58ea68146101a9578063c9630cb0146101d9578063f2fde38b146101f5576100a9565b80631f14df69146100ae578063667cb4ba146100de578063715018a61461010f5780638da5cb5b146101195780639776aacf14610137575b600080fd5b6100c860048036038101906100c39190610d44565b610211565b6040516100d59190611212565b60405180910390f35b6100f860048036038101906100f39190610db1565b610236565b604051610106929190611169565b60405180910390f35b61011761027a565b005b610121610302565b60405161012e91906110b1565b60405180910390f35b610151600480360381019061014c9190610dde565b61032b565b005b61016d60048036038101906101689190610e5e565b610466565b60405161017a919061114e565b60405180910390f35b61018b61048a565b005b6101a760048036038101906101a29190610e8b565b61048c565b005b6101c360048036038101906101be9190610e1e565b610746565b6040516101d0919061112c565b60405180910390f35b6101f360048036038101906101ee9190610e8b565b610895565b005b61020f600480360381019061020a9190610d17565b610abe565b005b6003602052816000526040600020602052806000526040600020600091509150505481565b60016020528060005260406000206000915090508060000154908060010160009054906101000a900473ffffffffffffffffffffffffffffffffffffffff16905082565b610282610bb6565b73ffffffffffffffffffffffffffffffffffffffff166102a0610302565b73ffffffffffffffffffffffffffffffffffffffff16146102f6576040517f08c379a00000000000000000000000000000000000000000000000000000000081526004016102ed906111d2565b60405180910390fd5b6103006000610bbe565b565b60008060009054906101000a900473ffffffffffffffffffffffffffffffffffffffff16905090565b610333610bb6565b73ffffffffffffffffffffffffffffffffffffffff16610351610302565b73ffffffffffffffffffffffffffffffffffffffff16146103a7576040517f08c379a000000000000000000000000000000000000000000000000000000000815260040161039e906111d2565b60405180910390fd5b60405180604001604052808381526020018273ffffffffffffffffffffffffffffffffffffffff16815250600160008481526020019081526020016000206000820151816000015560208201518160010160006101000a81548173ffffffffffffffffffffffffffffffffffffffff021916908373ffffffffffffffffffffffffffffffffffffffff16021790555090505060028290806001815401808255809150506001900390600052602060002001600090919091909150555050565b6002818154811061047657600080fd5b906000526020600020016000915090505481565b565b80600073ffffffffffffffffffffffffffffffffffffffff166001600083815260200190815260200160002060010160009054906101000a900473ffffffffffffffffffffffffffffffffffffffff1673ffffffffffffffffffffffffffffffffffffffff161415610533576040517f08c379a000000000000000000000000000000000000000000000000000000000815260040161052a906111b2565b60405180910390fd5b82600360003373ffffffffffffffffffffffffffffffffffffffff1673ffffffffffffffffffffffffffffffffffffffff16815260200190815260200160002060008481526020019081526020016000205410156105c6576040517f08c379a00000000000000000000000000000000000000000000000000000000081526004016105bd906111f2565b60405180910390fd5b61062983600360003373ffffffffffffffffffffffffffffffffffffffff1673ffffffffffffffffffffffffffffffffffffffff168152602001908152602001600020600085815260200190815260200160002054610c8290919063ffffffff16565b600360003373ffffffffffffffffffffffffffffffffffffffff1673ffffffffffffffffffffffffffffffffffffffff1681526020019081526020016000206000848152602001908152602001600020819055506001600083815260200190815260200160002060010160009054906101000a900473ffffffffffffffffffffffffffffffffffffffff1673ffffffffffffffffffffffffffffffffffffffff1663a9059cbb33856040518363ffffffff1660e01b81526004016106ee929190611103565b602060405180830381600087803b15801561070857600080fd5b505af115801561071c573d6000803e3d6000fd5b505050506040513d601f19601f820116820180604052508101906107409190610d84565b50505050565b60606004600084815260200190815260200160002060008360018111156107705761076f6113a7565b5b8152602001908152602001600020805480602002602001604051908101604052809291908181526020016000905b8282101561088957838290600052602060002090600502016040518060c0016040529081600082015481526020016001820160009054906101000a900473ffffffffffffffffffffffffffffffffffffffff1673ffffffffffffffffffffffffffffffffffffffff1673ffffffffffffffffffffffffffffffffffffffff1681526020016001820160149054906101000a900460ff166001811115610846576108456113a7565b5b6001811115610858576108576113a7565b5b815260200160028201548152602001600382015481526020016004820154815250508152602001906001019061079e565b50505050905092915050565b80600073ffffffffffffffffffffffffffffffffffffffff166001600083815260200190815260200160002060010160009054906101000a900473ffffffffffffffffffffffffffffffffffffffff1673ffffffffffffffffffffffffffffffffffffffff16141561093c576040517f08c379a0000000000000000000000000000000000000000000000000000000008152600401610933906111b2565b60405180910390fd5b6001600083815260200190815260200160002060010160009054906101000a900473ffffffffffffffffffffffffffffffffffffffff1673ffffffffffffffffffffffffffffffffffffffff166323b872dd3330866040518463ffffffff1660e01b81526004016109af939291906110cc565b602060405180830381600087803b1580156109c957600080fd5b505af11580156109dd573d6000803e3d6000fd5b505050506040513d601f19601f82011682018060405250810190610a019190610d84565b50610a6583600360003373ffffffffffffffffffffffffffffffffffffffff1673ffffffffffffffffffffffffffffffffffffffff168152602001908152602001600020600085815260200190815260200160002054610c9890919063ffffffff16565b600360003373ffffffffffffffffffffffffffffffffffffffff1673ffffffffffffffffffffffffffffffffffffffff168152602001908152602001600020600084815260200190815260200160002081905550505050565b610ac6610bb6565b73ffffffffffffffffffffffffffffffffffffffff16610ae4610302565b73ffffffffffffffffffffffffffffffffffffffff1614610b3a576040517f08c379a0000000000000000000000000000000000000000000000000000000008152600401610b31906111d2565b60405180910390fd5b600073ffffffffffffffffffffffffffffffffffffffff168173ffffffffffffffffffffffffffffffffffffffff161415610baa576040517f08c379a0000000000000000000000000000000000000000000000000000000008152600401610ba190611192565b60405180910390fd5b610bb381610bbe565b50565b600033905090565b60008060009054906101000a900473ffffffffffffffffffffffffffffffffffffffff169050816000806101000a81548173ffffffffffffffffffffffffffffffffffffffff021916908373ffffffffffffffffffffffffffffffffffffffff1602179055508173ffffffffffffffffffffffffffffffffffffffff168173ffffffffffffffffffffffffffffffffffffffff167f8be0079c531659141344cd1fd0a4f28419497f9722a3daafe3b4186f6b6457e060405160405180910390a35050565b60008183610c9091906112cd565b905092915050565b60008183610ca69190611277565b905092915050565b600081359050610cbd816114b9565b92915050565b600081519050610cd2816114d0565b92915050565b600081359050610ce7816114e7565b92915050565b600081359050610cfc816114fe565b92915050565b600081359050610d118161150e565b92915050565b600060208284031215610d2d57610d2c6113d6565b5b6000610d3b84828501610cae565b91505092915050565b60008060408385031215610d5b57610d5a6113d6565b5b6000610d6985828601610cae565b9250506020610d7a85828601610cd8565b9150509250929050565b600060208284031215610d9a57610d996113d6565b5b6000610da884828501610cc3565b91505092915050565b600060208284031215610dc757610dc66113d6565b5b6000610dd584828501610cd8565b91505092915050565b60008060408385031215610df557610df46113d6565b5b6000610e0385828601610cd8565b9250506020610e1485828601610cae565b9150509250929050565b60008060408385031215610e3557610e346113d6565b5b6000610e4385828601610cd8565b9250506020610e5485828601610ced565b9150509250929050565b600060208284031215610e7457610e736113d6565b5b6000610e8284828501610d02565b91505092915050565b60008060408385031215610ea257610ea16113d6565b5b6000610eb085828601610d02565b9250506020610ec185828601610cd8565b9150509250929050565b6000610ed78383611018565b60c08301905092915050565b610eec81611301565b82525050565b610efb81611301565b82525050565b6000610f0c8261123d565b610f168185611255565b9350610f218361122d565b8060005b83811015610f52578151610f398882610ecb565b9750610f4483611248565b925050600181019050610f25565b5085935050505092915050565b610f688161131f565b82525050565b610f778161131f565b82525050565b610f8681611366565b82525050565b6000610f99602683611266565b9150610fa4826113db565b604082019050919050565b6000610fbc601483611266565b9150610fc78261142a565b602082019050919050565b6000610fdf602083611266565b9150610fea82611453565b602082019050919050565b6000611002601683611266565b915061100d8261147c565b602082019050919050565b60c08201600082015161102e6000850182611093565b5060208201516110416020850182610ee3565b5060408201516110546040850182610f7d565b5060608201516110676060850182610f5f565b50608082015161107a6080850182611093565b5060a082015161108d60a0850182611093565b50505050565b61109c8161135c565b82525050565b6110ab8161135c565b82525050565b60006020820190506110c66000830184610ef2565b92915050565b60006060820190506110e16000830186610ef2565b6110ee6020830185610ef2565b6110fb60408301846110a2565b949350505050565b60006040820190506111186000830185610ef2565b61112560208301846110a2565b9392505050565b600060208201905081810360008301526111468184610f01565b905092915050565b60006020820190506111636000830184610f6e565b92915050565b600060408201905061117e6000830185610f6e565b61118b6020830184610ef2565b9392505050565b600060208201905081810360008301526111ab81610f8c565b9050919050565b600060208201905081810360008301526111cb81610faf565b9050919050565b600060208201905081810360008301526111eb81610fd2565b9050919050565b6000602082019050818103600083015261120b81610ff5565b9050919050565b600060208201905061122760008301846110a2565b92915050565b6000819050602082019050919050565b600081519050919050565b6000602082019050919050565b600082825260208201905092915050565b600082825260208201905092915050565b60006112828261135c565b915061128d8361135c565b9250827fffffffffffffffffffffffffffffffffffffffffffffffffffffffffffffffff038211156112c2576112c1611378565b5b828201905092915050565b60006112d88261135c565b91506112e38361135c565b9250828210156112f6576112f5611378565b5b828203905092915050565b600061130c8261133c565b9050919050565b60008115159050919050565b6000819050919050565b6000819050611337826114a5565b919050565b600073ffffffffffffffffffffffffffffffffffffffff82169050919050565b6000819050919050565b600061137182611329565b9050919050565b7f4e487b7100000000000000000000000000000000000000000000000000000000600052601160045260246000fd5b7f4e487b7100000000000000000000000000000000000000000000000000000000600052602160045260246000fd5b600080fd5b7f4f776e61626c653a206e6577206f776e657220697320746865207a65726f206160008201527f6464726573730000000000000000000000000000000000000000000000000000602082015250565b7f546f6b656e20646f6573206e6f74206578697374000000000000000000000000600082015250565b7f4f776e61626c653a2063616c6c6572206973206e6f7420746865206f776e6572600082015250565b7f42616c616e6365206e6f742073756666696369656e7400000000000000000000600082015250565b600281106114b6576114b56113a7565b5b50565b6114c281611301565b81146114cd57600080fd5b50565b6114d981611313565b81146114e457600080fd5b50565b6114f08161131f565b81146114fb57600080fd5b50565b6002811061150b57600080fd5b50565b6115178161135c565b811461152257600080fd5b5056fea26469706673582212209e1c46521d529465d9a637f5ab7f6d31527638c2283d283cba43cbcf646a88ef64736f6c63430008070033",
  "immutableReferences": {},
  "source": "// SPDX-License-Identifier: MIT\n\npragma solidity ^0.8.0;\npragma experimental ABIEncoderV2;\n\nimport \"./Wallet.sol\";\n\ncontract Dex is Wallet {\n\n  enum Side {\n    BUY,\n    SELL\n  }\n\n  struct Order {\n    uint id;\n    address trader;\n    Side side;\n    bytes32 ticker;\n    uint amount;\n    uint price;\n  }\n\n  mapping(bytes32 => mapping(uint => Order[])) orderBook;\n\n  function getOrderBook(bytes32 ticker, Side side) view public returns(Order[] memory) {\n    return orderBook[ticker][uint(side)];\n  }\n\n  function createLimitOrder() public {\n\n  }\n}\n",
  "sourcePath": "/Users/local-admin/repos/ivan-smart-contracts/project_201/dex/contracts/Dex.sol",
  "compiler": {
    "name": "solc",
    "version": "0.8.7+commit.e28d00a7.Emscripten.clang"
  },
  "schemaVersion": "3.4.3",
  "updatedAt": "2021-08-26T18:11:02.174Z",
  "networkType": "ethereum",
  "devdoc": {
    "kind": "dev",
    "methods": {
      "owner()": {
        "details": "Returns the address of the current owner."
      },
      "renounceOwnership()": {
        "details": "Leaves the contract without owner. It will not be possible to call `onlyOwner` functions anymore. Can only be called by the current owner. NOTE: Renouncing ownership will leave the contract without an owner, thereby removing any functionality that is only available to the owner."
      },
      "transferOwnership(address)": {
        "details": "Transfers ownership of the contract to a new account (`newOwner`). Can only be called by the current owner."
      }
    },
    "version": 1
  },
  "userdoc": {
    "kind": "user",
    "methods": {},
    "version": 1
  }
}