{
  "contractName": "Wallet",
  "abi": [
    {
      "inputs": [
        {
          "internalType": "address",
          "name": "",
          "type": "address"
        },
        {
          "internalType": "bytes32",
          "name": "",
          "type": "bytes32"
        }
      ],
      "name": "balances",
      "outputs": [
        {
          "internalType": "uint256",
          "name": "",
          "type": "uint256"
        }
      ],
      "stateMutability": "view",
      "type": "function"
    },
    {
      "inputs": [
        {
          "internalType": "uint256",
          "name": "",
          "type": "uint256"
        }
      ],
      "name": "tokenList",
      "outputs": [
        {
          "internalType": "bytes32",
          "name": "",
          "type": "bytes32"
        }
      ],
      "stateMutability": "view",
      "type": "function"
    },
    {
      "inputs": [
        {
          "internalType": "bytes32",
          "name": "",
          "type": "bytes32"
        }
      ],
      "name": "tokenMapping",
      "outputs": [
        {
          "internalType": "bytes32",
          "name": "ticker",
          "type": "bytes32"
        },
        {
          "internalType": "address",
          "name": "tokenAddress",
          "type": "address"
        }
      ],
      "stateMutability": "view",
      "type": "function"
    },
    {
      "inputs": [
        {
          "internalType": "bytes32",
          "name": "ticker",
          "type": "bytes32"
        },
        {
          "internalType": "address",
          "name": "tokenAddress",
          "type": "address"
        }
      ],
      "name": "addToken",
      "outputs": [],
      "stateMutability": "nonpayable",
      "type": "function"
    },
    {
      "inputs": [
        {
          "internalType": "uint256",
          "name": "amount",
          "type": "uint256"
        },
        {
          "internalType": "bytes32",
          "name": "ticker",
          "type": "bytes32"
        }
      ],
      "name": "deposit",
      "outputs": [],
      "stateMutability": "nonpayable",
      "type": "function"
    },
    {
      "inputs": [
        {
          "internalType": "uint256",
          "name": "amount",
          "type": "uint256"
        },
        {
          "internalType": "bytes32",
          "name": "ticker",
          "type": "bytes32"
        }
      ],
      "name": "withdraw",
      "outputs": [],
      "stateMutability": "nonpayable",
      "type": "function"
    }
  ],
  "bytecode": "0x608060405234801561001057600080fd5b506108e4806100206000396000f3fe608060405234801561001057600080fd5b50600436106100625760003560e01c80631f14df6914610067578063667cb4ba146100975780639776aacf146100c85780639ead7222146100e4578063a8d2021a14610114578063c9630cb014610130575b600080fd5b610081600480360381019061007c919061051f565b61014c565b60405161008e9190610743565b60405180910390f35b6100b160048036038101906100ac919061058c565b610171565b6040516100bf9291906106fa565b60405180910390f35b6100e260048036038101906100dd91906105b9565b6101b5565b005b6100fe60048036038101906100f991906105f9565b610273565b60405161010b91906106df565b60405180910390f35b61012e60048036038101906101299190610626565b610297565b005b61014a60048036038101906101459190610626565b6104c7565b005b6002602052816000526040600020602052806000526040600020600091509150505481565b60006020528060005260406000206000915090508060000154908060010160009054906101000a900473ffffffffffffffffffffffffffffffffffffffff16905082565b60405180604001604052808381526020018273ffffffffffffffffffffffffffffffffffffffff168152506000808481526020019081526020016000206000820151816000015560208201518160010160006101000a81548173ffffffffffffffffffffffffffffffffffffffff021916908373ffffffffffffffffffffffffffffffffffffffff16021790555090505060018290806001815401808255809150506001900390600052602060002001600090919091909150555050565b6001818154811061028357600080fd5b906000526020600020016000915090505481565b600073ffffffffffffffffffffffffffffffffffffffff1660008083815260200190815260200160002060010160009054906101000a900473ffffffffffffffffffffffffffffffffffffffff1673ffffffffffffffffffffffffffffffffffffffff16141561030657600080fd5b81600260003373ffffffffffffffffffffffffffffffffffffffff1673ffffffffffffffffffffffffffffffffffffffff1681526020019081526020016000206000838152602001908152602001600020541015610399576040517f08c379a000000000000000000000000000000000000000000000000000000000815260040161039090610723565b60405180910390fd5b81600260003373ffffffffffffffffffffffffffffffffffffffff1673ffffffffffffffffffffffffffffffffffffffff168152602001908152602001600020600083815260200190815260200160002060008282546103f9919061076f565b9250508190555060008082815260200190815260200160002060010160009054906101000a900473ffffffffffffffffffffffffffffffffffffffff1673ffffffffffffffffffffffffffffffffffffffff1663a9059cbb33846040518363ffffffff1660e01b81526004016104709291906106b6565b602060405180830381600087803b15801561048a57600080fd5b505af115801561049e573d6000803e3d6000fd5b505050506040513d601f19601f820116820180604052508101906104c2919061055f565b505050565b5050565b6000813590506104da81610852565b92915050565b6000815190506104ef81610869565b92915050565b60008135905061050481610880565b92915050565b60008135905061051981610897565b92915050565b6000806040838503121561053657610535610824565b5b6000610544858286016104cb565b9250506020610555858286016104f5565b9150509250929050565b60006020828403121561057557610574610824565b5b6000610583848285016104e0565b91505092915050565b6000602082840312156105a2576105a1610824565b5b60006105b0848285016104f5565b91505092915050565b600080604083850312156105d0576105cf610824565b5b60006105de858286016104f5565b92505060206105ef858286016104cb565b9150509250929050565b60006020828403121561060f5761060e610824565b5b600061061d8482850161050a565b91505092915050565b6000806040838503121561063d5761063c610824565b5b600061064b8582860161050a565b925050602061065c858286016104f5565b9150509250929050565b61066f816107a3565b82525050565b61067e816107c1565b82525050565b600061069160168361075e565b915061069c82610829565b602082019050919050565b6106b0816107eb565b82525050565b60006040820190506106cb6000830185610666565b6106d860208301846106a7565b9392505050565b60006020820190506106f46000830184610675565b92915050565b600060408201905061070f6000830185610675565b61071c6020830184610666565b9392505050565b6000602082019050818103600083015261073c81610684565b9050919050565b600060208201905061075860008301846106a7565b92915050565b600082825260208201905092915050565b600061077a826107eb565b9150610785836107eb565b925082821015610798576107976107f5565b5b828203905092915050565b60006107ae826107cb565b9050919050565b60008115159050919050565b6000819050919050565b600073ffffffffffffffffffffffffffffffffffffffff82169050919050565b6000819050919050565b7f4e487b7100000000000000000000000000000000000000000000000000000000600052601160045260246000fd5b600080fd5b7f42616c616e6365206e6f742073756666696369656e7400000000000000000000600082015250565b61085b816107a3565b811461086657600080fd5b50565b610872816107b5565b811461087d57600080fd5b50565b610889816107c1565b811461089457600080fd5b50565b6108a0816107eb565b81146108ab57600080fd5b5056fea2646970667358221220563d1d297a65ceac63ddfa695b6f41dca0b53dd764af593ca861219ba22cdc6d64736f6c63430008070033",
  "immutableReferences": {},
  "source": "// SPDX-License-Identifier: MIT\n\npragma solidity ^0.8.0;\n\nimport \"../node_modules/@openzeppelin/contracts/token/ERC20/IERC20.sol\";\n\ncontract Wallet {\n\n  struct Token {\n    bytes32 ticker;\n    address tokenAddress;\n  }\n  mapping(bytes32 => Token) public tokenMapping;\n  bytes32[] public tokenList;\n\n  mapping(address => mapping(bytes32 => uint256)) public balances;\n\n  function addToken(bytes32 ticker, address tokenAddress) external {\n    tokenMapping[ticker] = Token(ticker, tokenAddress);\n    tokenList.push(ticker);\n  }\n\n  function deposit(uint amount, bytes32 ticker) external {\n\n  }\n\n  function withdraw(uint amount, bytes32 ticker) external {\n    require(tokenMapping[ticker].tokenAddress != address(0));\n    require(balances[msg.sender][ticker] >= amount,\n            \"Balance not sufficient\");\n\n    balances[msg.sender][ticker] -= amount;\n    IERC20(tokenMapping[ticker].tokenAddress)\n      .transfer(msg.sender, amount);    \n  }\n\n}\n",
  "sourcePath": "/Users/local-admin/repos/ivan-smart-contracts/project_201/dex/contracts/Wallet.sol",
  "compiler": {
    "name": "solc",
    "version": "0.8.7+commit.e28d00a7.Emscripten.clang"
  },
  "schemaVersion": "3.4.3",
  "updatedAt": "2021-08-26T14:04:57.536Z",
  "devdoc": {
    "kind": "dev",
    "methods": {},
    "version": 1
  },
  "userdoc": {
    "kind": "user",
    "methods": {},
    "version": 1
  }
}