{
  "contractName": "Wallet",
  "abi": [
    {
      "anonymous": false,
      "inputs": [
        {
          "indexed": true,
          "internalType": "address",
          "name": "previousOwner",
          "type": "address"
        },
        {
          "indexed": true,
          "internalType": "address",
          "name": "newOwner",
          "type": "address"
        }
      ],
      "name": "OwnershipTransferred",
      "type": "event"
    },
    {
      "inputs": [
        {
          "internalType": "address",
          "name": "",
          "type": "address"
        },
        {
          "internalType": "bytes32",
          "name": "",
          "type": "bytes32"
        }
      ],
      "name": "balances",
      "outputs": [
        {
          "internalType": "uint256",
          "name": "",
          "type": "uint256"
        }
      ],
      "stateMutability": "view",
      "type": "function"
    },
    {
      "inputs": [],
      "name": "owner",
      "outputs": [
        {
          "internalType": "address",
          "name": "",
          "type": "address"
        }
      ],
      "stateMutability": "view",
      "type": "function"
    },
    {
      "inputs": [],
      "name": "renounceOwnership",
      "outputs": [],
      "stateMutability": "nonpayable",
      "type": "function"
    },
    {
      "inputs": [
        {
          "internalType": "uint256",
          "name": "",
          "type": "uint256"
        }
      ],
      "name": "tokenList",
      "outputs": [
        {
          "internalType": "bytes32",
          "name": "",
          "type": "bytes32"
        }
      ],
      "stateMutability": "view",
      "type": "function"
    },
    {
      "inputs": [
        {
          "internalType": "bytes32",
          "name": "",
          "type": "bytes32"
        }
      ],
      "name": "tokenMapping",
      "outputs": [
        {
          "internalType": "bytes32",
          "name": "ticker",
          "type": "bytes32"
        },
        {
          "internalType": "address",
          "name": "tokenAddress",
          "type": "address"
        }
      ],
      "stateMutability": "view",
      "type": "function"
    },
    {
      "inputs": [
        {
          "internalType": "address",
          "name": "newOwner",
          "type": "address"
        }
      ],
      "name": "transferOwnership",
      "outputs": [],
      "stateMutability": "nonpayable",
      "type": "function"
    },
    {
      "inputs": [
        {
          "internalType": "bytes32",
          "name": "ticker",
          "type": "bytes32"
        },
        {
          "internalType": "address",
          "name": "tokenAddress",
          "type": "address"
        }
      ],
      "name": "addToken",
      "outputs": [],
      "stateMutability": "nonpayable",
      "type": "function"
    },
    {
      "inputs": [
        {
          "internalType": "uint256",
          "name": "amount",
          "type": "uint256"
        },
        {
          "internalType": "bytes32",
          "name": "ticker",
          "type": "bytes32"
        }
      ],
      "name": "deposit",
      "outputs": [],
      "stateMutability": "nonpayable",
      "type": "function"
    },
    {
      "inputs": [],
      "name": "depositEth",
      "outputs": [],
      "stateMutability": "payable",
      "type": "function"
    },
    {
      "inputs": [
        {
          "internalType": "uint256",
          "name": "amount",
          "type": "uint256"
        },
        {
          "internalType": "bytes32",
          "name": "ticker",
          "type": "bytes32"
        }
      ],
      "name": "withdraw",
      "outputs": [],
      "stateMutability": "nonpayable",
      "type": "function"
    },
    {
      "inputs": [
        {
          "internalType": "uint256",
          "name": "amount",
          "type": "uint256"
        }
      ],
      "name": "withdrawEth",
      "outputs": [],
      "stateMutability": "nonpayable",
      "type": "function"
    }
  ],
  "bytecode": "0x608060405234801561001057600080fd5b5061002d61002261003260201b60201c565b61003a60201b60201c565b6100fe565b600033905090565b60008060009054906101000a900473ffffffffffffffffffffffffffffffffffffffff169050816000806101000a81548173ffffffffffffffffffffffffffffffffffffffff021916908373ffffffffffffffffffffffffffffffffffffffff1602179055508173ffffffffffffffffffffffffffffffffffffffff168173ffffffffffffffffffffffffffffffffffffffff167f8be0079c531659141344cd1fd0a4f28419497f9722a3daafe3b4186f6b6457e060405160405180910390a35050565b61156b8061010d6000396000f3fe60806040526004361061009c5760003560e01c80639776aacf116100645780639776aacf146101685780639ead722214610191578063a8d2021a146101ce578063c311d049146101f7578063c9630cb014610220578063f2fde38b146102495761009c565b80631f14df69146100a1578063439370b1146100de578063667cb4ba146100e8578063715018a6146101265780638da5cb5b1461013d575b600080fd5b3480156100ad57600080fd5b506100c860048036038101906100c39190610f4e565b610272565b6040516100d591906112c5565b60405180910390f35b6100e6610297565b005b3480156100f457600080fd5b5061010f600480360381019061010a9190610fbb565b610390565b60405161011d92919061121c565b60405180910390f35b34801561013257600080fd5b5061013b6103d4565b005b34801561014957600080fd5b5061015261045c565b60405161015f9190611186565b60405180910390f35b34801561017457600080fd5b5061018f600480360381019061018a9190610fe8565b610485565b005b34801561019d57600080fd5b506101b860048036038101906101b39190611028565b6105c0565b6040516101c59190611201565b60405180910390f35b3480156101da57600080fd5b506101f560048036038101906101f09190611055565b6105e4565b005b34801561020357600080fd5b5061021e60048036038101906102199190611028565b61089e565b005b34801561022c57600080fd5b5061024760048036038101906102429190611055565b610ab4565b005b34801561025557600080fd5b50610270600480360381019061026b9190610f21565b610cdd565b005b6003602052816000526040600020602052806000526040600020600091509150505481565b61031a34600360003373ffffffffffffffffffffffffffffffffffffffff1673ffffffffffffffffffffffffffffffffffffffff16815260200190815260200160002060007f4554480000000000000000000000000000000000000000000000000000000000815260200190815260200160002054610dd590919063ffffffff16565b600360003373ffffffffffffffffffffffffffffffffffffffff1673ffffffffffffffffffffffffffffffffffffffff16815260200190815260200160002060007f4554480000000000000000000000000000000000000000000000000000000000815260200190815260200160002081905550565b60016020528060005260406000206000915090508060000154908060010160009054906101000a900473ffffffffffffffffffffffffffffffffffffffff16905082565b6103dc610deb565b73ffffffffffffffffffffffffffffffffffffffff166103fa61045c565b73ffffffffffffffffffffffffffffffffffffffff1614610450576040517f08c379a0000000000000000000000000000000000000000000000000000000008152600401610447906112a5565b60405180910390fd5b61045a6000610df3565b565b60008060009054906101000a900473ffffffffffffffffffffffffffffffffffffffff16905090565b61048d610deb565b73ffffffffffffffffffffffffffffffffffffffff166104ab61045c565b73ffffffffffffffffffffffffffffffffffffffff1614610501576040517f08c379a00000000000000000000000000000000000000000000000000000000081526004016104f8906112a5565b60405180910390fd5b60405180604001604052808381526020018273ffffffffffffffffffffffffffffffffffffffff16815250600160008481526020019081526020016000206000820151816000015560208201518160010160006101000a81548173ffffffffffffffffffffffffffffffffffffffff021916908373ffffffffffffffffffffffffffffffffffffffff16021790555090505060028290806001815401808255809150506001900390600052602060002001600090919091909150555050565b600281815481106105d057600080fd5b906000526020600020016000915090505481565b80600073ffffffffffffffffffffffffffffffffffffffff166001600083815260200190815260200160002060010160009054906101000a900473ffffffffffffffffffffffffffffffffffffffff1673ffffffffffffffffffffffffffffffffffffffff16141561068b576040517f08c379a000000000000000000000000000000000000000000000000000000000815260040161068290611285565b60405180910390fd5b82600360003373ffffffffffffffffffffffffffffffffffffffff1673ffffffffffffffffffffffffffffffffffffffff168152602001908152602001600020600084815260200190815260200160002054101561071e576040517f08c379a000000000000000000000000000000000000000000000000000000000815260040161071590611265565b60405180910390fd5b61078183600360003373ffffffffffffffffffffffffffffffffffffffff1673ffffffffffffffffffffffffffffffffffffffff168152602001908152602001600020600085815260200190815260200160002054610eb790919063ffffffff16565b600360003373ffffffffffffffffffffffffffffffffffffffff1673ffffffffffffffffffffffffffffffffffffffff1681526020019081526020016000206000848152602001908152602001600020819055506001600083815260200190815260200160002060010160009054906101000a900473ffffffffffffffffffffffffffffffffffffffff1673ffffffffffffffffffffffffffffffffffffffff1663a9059cbb33856040518363ffffffff1660e01b81526004016108469291906111d8565b602060405180830381600087803b15801561086057600080fd5b505af1158015610874573d6000803e3d6000fd5b505050506040513d601f19601f820116820180604052508101906108989190610f8e565b50505050565b80600360003373ffffffffffffffffffffffffffffffffffffffff1673ffffffffffffffffffffffffffffffffffffffff16815260200190815260200160002060007f45544800000000000000000000000000000000000000000000000000000000008152602001908152602001600020541015610951576040517f08c379a000000000000000000000000000000000000000000000000000000000815260040161094890611265565b60405180910390fd5b6109d481600360003373ffffffffffffffffffffffffffffffffffffffff1673ffffffffffffffffffffffffffffffffffffffff16815260200190815260200160002060007f4554480000000000000000000000000000000000000000000000000000000000815260200190815260200160002054610eb790919063ffffffff16565b600360003373ffffffffffffffffffffffffffffffffffffffff1673ffffffffffffffffffffffffffffffffffffffff16815260200190815260200160002060007f45544800000000000000000000000000000000000000000000000000000000008152602001908152602001600020819055503373ffffffffffffffffffffffffffffffffffffffff1681604051610a6c90611171565b60006040518083038185875af1925050503d8060008114610aa9576040519150601f19603f3d011682016040523d82523d6000602084013e610aae565b606091505b50505050565b80600073ffffffffffffffffffffffffffffffffffffffff166001600083815260200190815260200160002060010160009054906101000a900473ffffffffffffffffffffffffffffffffffffffff1673ffffffffffffffffffffffffffffffffffffffff161415610b5b576040517f08c379a0000000000000000000000000000000000000000000000000000000008152600401610b5290611285565b60405180910390fd5b6001600083815260200190815260200160002060010160009054906101000a900473ffffffffffffffffffffffffffffffffffffffff1673ffffffffffffffffffffffffffffffffffffffff166323b872dd3330866040518463ffffffff1660e01b8152600401610bce939291906111a1565b602060405180830381600087803b158015610be857600080fd5b505af1158015610bfc573d6000803e3d6000fd5b505050506040513d601f19601f82011682018060405250810190610c209190610f8e565b50610c8483600360003373ffffffffffffffffffffffffffffffffffffffff1673ffffffffffffffffffffffffffffffffffffffff168152602001908152602001600020600085815260200190815260200160002054610dd590919063ffffffff16565b600360003373ffffffffffffffffffffffffffffffffffffffff1673ffffffffffffffffffffffffffffffffffffffff168152602001908152602001600020600084815260200190815260200160002081905550505050565b610ce5610deb565b73ffffffffffffffffffffffffffffffffffffffff16610d0361045c565b73ffffffffffffffffffffffffffffffffffffffff1614610d59576040517f08c379a0000000000000000000000000000000000000000000000000000000008152600401610d50906112a5565b60405180910390fd5b600073ffffffffffffffffffffffffffffffffffffffff168173ffffffffffffffffffffffffffffffffffffffff161415610dc9576040517f08c379a0000000000000000000000000000000000000000000000000000000008152600401610dc090611245565b60405180910390fd5b610dd281610df3565b50565b60008183610de391906112fc565b905092915050565b600033905090565b60008060009054906101000a900473ffffffffffffffffffffffffffffffffffffffff169050816000806101000a81548173ffffffffffffffffffffffffffffffffffffffff021916908373ffffffffffffffffffffffffffffffffffffffff1602179055508173ffffffffffffffffffffffffffffffffffffffff168173ffffffffffffffffffffffffffffffffffffffff167f8be0079c531659141344cd1fd0a4f28419497f9722a3daafe3b4186f6b6457e060405160405180910390a35050565b60008183610ec59190611352565b905092915050565b600081359050610edc816114d9565b92915050565b600081519050610ef1816114f0565b92915050565b600081359050610f0681611507565b92915050565b600081359050610f1b8161151e565b92915050565b600060208284031215610f3757610f36611407565b5b6000610f4584828501610ecd565b91505092915050565b60008060408385031215610f6557610f64611407565b5b6000610f7385828601610ecd565b9250506020610f8485828601610ef7565b9150509250929050565b600060208284031215610fa457610fa3611407565b5b6000610fb284828501610ee2565b91505092915050565b600060208284031215610fd157610fd0611407565b5b6000610fdf84828501610ef7565b91505092915050565b60008060408385031215610fff57610ffe611407565b5b600061100d85828601610ef7565b925050602061101e85828601610ecd565b9150509250929050565b60006020828403121561103e5761103d611407565b5b600061104c84828501610f0c565b91505092915050565b6000806040838503121561106c5761106b611407565b5b600061107a85828601610f0c565b925050602061108b85828601610ef7565b9150509250929050565b61109e81611386565b82525050565b6110ad816113a4565b82525050565b60006110c06026836112eb565b91506110cb8261140c565b604082019050919050565b60006110e36014836112eb565b91506110ee8261145b565b602082019050919050565b60006111066014836112eb565b915061111182611484565b602082019050919050565b60006111296020836112eb565b9150611134826114ad565b602082019050919050565b600061114c6000836112e0565b9150611157826114d6565b600082019050919050565b61116b816113ce565b82525050565b600061117c8261113f565b9150819050919050565b600060208201905061119b6000830184611095565b92915050565b60006060820190506111b66000830186611095565b6111c36020830185611095565b6111d06040830184611162565b949350505050565b60006040820190506111ed6000830185611095565b6111fa6020830184611162565b9392505050565b600060208201905061121660008301846110a4565b92915050565b600060408201905061123160008301856110a4565b61123e6020830184611095565b9392505050565b6000602082019050818103600083015261125e816110b3565b9050919050565b6000602082019050818103600083015261127e816110d6565b9050919050565b6000602082019050818103600083015261129e816110f9565b9050919050565b600060208201905081810360008301526112be8161111c565b9050919050565b60006020820190506112da6000830184611162565b92915050565b600081905092915050565b600082825260208201905092915050565b6000611307826113ce565b9150611312836113ce565b9250827fffffffffffffffffffffffffffffffffffffffffffffffffffffffffffffffff03821115611347576113466113d8565b5b828201905092915050565b600061135d826113ce565b9150611368836113ce565b92508282101561137b5761137a6113d8565b5b828203905092915050565b6000611391826113ae565b9050919050565b60008115159050919050565b6000819050919050565b600073ffffffffffffffffffffffffffffffffffffffff82169050919050565b6000819050919050565b7f4e487b7100000000000000000000000000000000000000000000000000000000600052601160045260246000fd5b600080fd5b7f4f776e61626c653a206e6577206f776e657220697320746865207a65726f206160008201527f6464726573730000000000000000000000000000000000000000000000000000602082015250565b7f496e73756666696369656e742062616c616e6365000000000000000000000000600082015250565b7f546f6b656e20646f6573206e6f74206578697374000000000000000000000000600082015250565b7f4f776e61626c653a2063616c6c6572206973206e6f7420746865206f776e6572600082015250565b50565b6114e281611386565b81146114ed57600080fd5b50565b6114f981611398565b811461150457600080fd5b50565b611510816113a4565b811461151b57600080fd5b50565b611527816113ce565b811461153257600080fd5b5056fea264697066735822122019102d69289dd074e4dcacbd2ecf8e22471d45b002fa69e20a7081c42827d83c64736f6c63430008070033",
  "immutableReferences": {},
  "source": "// SPDX-License-Identifier: MIT\n\npragma solidity ^0.8.0;\n\nimport \"../node_modules/@openzeppelin/contracts/token/ERC20/IERC20.sol\";\nimport \"../node_modules/@openzeppelin/contracts/utils/math/SafeMath.sol\";\nimport \"../node_modules/@openzeppelin/contracts/access/Ownable.sol\";\n\ncontract Wallet is Ownable {\n  using SafeMath for uint256;\n\n  struct Token {\n    bytes32 ticker;\n    address tokenAddress;\n  }\n  mapping(bytes32 => Token) public tokenMapping;\n  bytes32[] public tokenList;\n\n  mapping(address => mapping(bytes32 => uint256)) public balances;\n\n  modifier tokenExist(bytes32 ticker) {\n    require(tokenMapping[ticker].tokenAddress != address(0),\n            \"Token does not exist\");\n    _;\n  }\n\n  function addToken(bytes32 ticker, address tokenAddress) external onlyOwner {\n    tokenMapping[ticker] = Token(ticker, tokenAddress);\n    tokenList.push(ticker);\n  }\n\n  function deposit(uint amount, bytes32 ticker) external tokenExist(ticker) {\n    IERC20(tokenMapping[ticker].tokenAddress)\n      .transferFrom(msg.sender, address(this), amount);\n    balances[msg.sender][ticker] = balances[msg.sender][ticker].add(amount);\n  }\n\n  function depositEth() payable external {\n    balances[msg.sender][bytes32(\"ETH\")] = balances[msg.sender][bytes32(\"ETH\")].add(msg.value);\n  }\n\n  function withdraw(uint amount, bytes32 ticker) external tokenExist(ticker) {\n    require(balances[msg.sender][ticker] >= amount,\n            \"Insufficient balance\");\n\n    balances[msg.sender][ticker] = balances[msg.sender][ticker].sub(amount);\n    IERC20(tokenMapping[ticker].tokenAddress)\n      .transfer(msg.sender, amount);\n  }\n\n  function withdrawEth(uint amount) external {\n    require(balances[msg.sender][bytes32(\"ETH\")] >= amount, \"Insufficient balance\");\n    balances[msg.sender][bytes32(\"ETH\")] = balances[msg.sender][bytes32(\"ETH\")].sub(amount);\n    msg.sender.call{value: amount}(\"\");\n  }\n\n}\n",
  "sourcePath": "/Users/local-admin/repos/ivan-smart-contracts/project_201/dex/contracts/Wallet.sol",
  "compiler": {
    "name": "solc",
    "version": "0.8.7+commit.e28d00a7.Emscripten.clang"
  },
  "schemaVersion": "3.4.3",
  "updatedAt": "2021-08-30T14:20:59.895Z",
  "devdoc": {
    "kind": "dev",
    "methods": {
      "owner()": {
        "details": "Returns the address of the current owner."
      },
      "renounceOwnership()": {
        "details": "Leaves the contract without owner. It will not be possible to call `onlyOwner` functions anymore. Can only be called by the current owner. NOTE: Renouncing ownership will leave the contract without an owner, thereby removing any functionality that is only available to the owner."
      },
      "transferOwnership(address)": {
        "details": "Transfers ownership of the contract to a new account (`newOwner`). Can only be called by the current owner."
      }
    },
    "version": 1
  },
  "userdoc": {
    "kind": "user",
    "methods": {},
    "version": 1
  }
}