{
  "contractName": "Wallet",
  "abi": [
    {
      "anonymous": false,
      "inputs": [
        {
          "indexed": true,
          "internalType": "address",
          "name": "previousOwner",
          "type": "address"
        },
        {
          "indexed": true,
          "internalType": "address",
          "name": "newOwner",
          "type": "address"
        }
      ],
      "name": "OwnershipTransferred",
      "type": "event"
    },
    {
      "inputs": [
        {
          "internalType": "address",
          "name": "",
          "type": "address"
        },
        {
          "internalType": "bytes32",
          "name": "",
          "type": "bytes32"
        }
      ],
      "name": "balances",
      "outputs": [
        {
          "internalType": "uint256",
          "name": "",
          "type": "uint256"
        }
      ],
      "stateMutability": "view",
      "type": "function"
    },
    {
      "inputs": [],
      "name": "owner",
      "outputs": [
        {
          "internalType": "address",
          "name": "",
          "type": "address"
        }
      ],
      "stateMutability": "view",
      "type": "function"
    },
    {
      "inputs": [],
      "name": "renounceOwnership",
      "outputs": [],
      "stateMutability": "nonpayable",
      "type": "function"
    },
    {
      "inputs": [
        {
          "internalType": "uint256",
          "name": "",
          "type": "uint256"
        }
      ],
      "name": "tokenList",
      "outputs": [
        {
          "internalType": "bytes32",
          "name": "",
          "type": "bytes32"
        }
      ],
      "stateMutability": "view",
      "type": "function"
    },
    {
      "inputs": [
        {
          "internalType": "bytes32",
          "name": "",
          "type": "bytes32"
        }
      ],
      "name": "tokenMapping",
      "outputs": [
        {
          "internalType": "bytes32",
          "name": "ticker",
          "type": "bytes32"
        },
        {
          "internalType": "address",
          "name": "tokenAddress",
          "type": "address"
        }
      ],
      "stateMutability": "view",
      "type": "function"
    },
    {
      "inputs": [
        {
          "internalType": "address",
          "name": "newOwner",
          "type": "address"
        }
      ],
      "name": "transferOwnership",
      "outputs": [],
      "stateMutability": "nonpayable",
      "type": "function"
    },
    {
      "inputs": [
        {
          "internalType": "bytes32",
          "name": "ticker",
          "type": "bytes32"
        },
        {
          "internalType": "address",
          "name": "tokenAddress",
          "type": "address"
        }
      ],
      "name": "addToken",
      "outputs": [],
      "stateMutability": "nonpayable",
      "type": "function"
    },
    {
      "inputs": [
        {
          "internalType": "uint256",
          "name": "amount",
          "type": "uint256"
        },
        {
          "internalType": "bytes32",
          "name": "ticker",
          "type": "bytes32"
        }
      ],
      "name": "deposit",
      "outputs": [],
      "stateMutability": "nonpayable",
      "type": "function"
    },
    {
      "inputs": [
        {
          "internalType": "uint256",
          "name": "amount",
          "type": "uint256"
        },
        {
          "internalType": "bytes32",
          "name": "ticker",
          "type": "bytes32"
        }
      ],
      "name": "withdraw",
      "outputs": [],
      "stateMutability": "nonpayable",
      "type": "function"
    }
  ],
  "bytecode": "0x608060405234801561001057600080fd5b5061002d61002261003260201b60201c565b61003a60201b60201c565b6100fe565b600033905090565b60008060009054906101000a900473ffffffffffffffffffffffffffffffffffffffff169050816000806101000a81548173ffffffffffffffffffffffffffffffffffffffff021916908373ffffffffffffffffffffffffffffffffffffffff1602179055508173ffffffffffffffffffffffffffffffffffffffff168173ffffffffffffffffffffffffffffffffffffffff167f8be0079c531659141344cd1fd0a4f28419497f9722a3daafe3b4186f6b6457e060405160405180910390a35050565b6111658061010d6000396000f3fe608060405234801561001057600080fd5b50600436106100935760003560e01c80639776aacf116100665780639776aacf146101215780639ead72221461013d578063a8d2021a1461016d578063c9630cb014610189578063f2fde38b146101a557610093565b80631f14df6914610098578063667cb4ba146100c8578063715018a6146100f95780638da5cb5b14610103575b600080fd5b6100b260048036038101906100ad9190610b8e565b6101c1565b6040516100bf9190610ecd565b60405180910390f35b6100e260048036038101906100dd9190610bfb565b6101e6565b6040516100f0929190610e24565b60405180910390f35b61010161022a565b005b61010b6102b2565b6040516101189190610d8e565b60405180910390f35b61013b60048036038101906101369190610c28565b6102db565b005b61015760048036038101906101529190610c68565b610416565b6040516101649190610e09565b60405180910390f35b61018760048036038101906101829190610c95565b61043a565b005b6101a3600480360381019061019e9190610c95565b6106f4565b005b6101bf60048036038101906101ba9190610b61565b61091d565b005b6003602052816000526040600020602052806000526040600020600091509150505481565b60016020528060005260406000206000915090508060000154908060010160009054906101000a900473ffffffffffffffffffffffffffffffffffffffff16905082565b610232610a15565b73ffffffffffffffffffffffffffffffffffffffff166102506102b2565b73ffffffffffffffffffffffffffffffffffffffff16146102a6576040517f08c379a000000000000000000000000000000000000000000000000000000000815260040161029d90610e8d565b60405180910390fd5b6102b06000610a1d565b565b60008060009054906101000a900473ffffffffffffffffffffffffffffffffffffffff16905090565b6102e3610a15565b73ffffffffffffffffffffffffffffffffffffffff166103016102b2565b73ffffffffffffffffffffffffffffffffffffffff1614610357576040517f08c379a000000000000000000000000000000000000000000000000000000000815260040161034e90610e8d565b60405180910390fd5b60405180604001604052808381526020018273ffffffffffffffffffffffffffffffffffffffff16815250600160008481526020019081526020016000206000820151816000015560208201518160010160006101000a81548173ffffffffffffffffffffffffffffffffffffffff021916908373ffffffffffffffffffffffffffffffffffffffff16021790555090505060028290806001815401808255809150506001900390600052602060002001600090919091909150555050565b6002818154811061042657600080fd5b906000526020600020016000915090505481565b80600073ffffffffffffffffffffffffffffffffffffffff166001600083815260200190815260200160002060010160009054906101000a900473ffffffffffffffffffffffffffffffffffffffff1673ffffffffffffffffffffffffffffffffffffffff1614156104e1576040517f08c379a00000000000000000000000000000000000000000000000000000000081526004016104d890610e6d565b60405180910390fd5b82600360003373ffffffffffffffffffffffffffffffffffffffff1673ffffffffffffffffffffffffffffffffffffffff1681526020019081526020016000206000848152602001908152602001600020541015610574576040517f08c379a000000000000000000000000000000000000000000000000000000000815260040161056b90610ead565b60405180910390fd5b6105d783600360003373ffffffffffffffffffffffffffffffffffffffff1673ffffffffffffffffffffffffffffffffffffffff168152602001908152602001600020600085815260200190815260200160002054610ae190919063ffffffff16565b600360003373ffffffffffffffffffffffffffffffffffffffff1673ffffffffffffffffffffffffffffffffffffffff1681526020019081526020016000206000848152602001908152602001600020819055506001600083815260200190815260200160002060010160009054906101000a900473ffffffffffffffffffffffffffffffffffffffff1673ffffffffffffffffffffffffffffffffffffffff1663a9059cbb33856040518363ffffffff1660e01b815260040161069c929190610de0565b602060405180830381600087803b1580156106b657600080fd5b505af11580156106ca573d6000803e3d6000fd5b505050506040513d601f19601f820116820180604052508101906106ee9190610bce565b50505050565b80600073ffffffffffffffffffffffffffffffffffffffff166001600083815260200190815260200160002060010160009054906101000a900473ffffffffffffffffffffffffffffffffffffffff1673ffffffffffffffffffffffffffffffffffffffff16141561079b576040517f08c379a000000000000000000000000000000000000000000000000000000000815260040161079290610e6d565b60405180910390fd5b6001600083815260200190815260200160002060010160009054906101000a900473ffffffffffffffffffffffffffffffffffffffff1673ffffffffffffffffffffffffffffffffffffffff166323b872dd3330866040518463ffffffff1660e01b815260040161080e93929190610da9565b602060405180830381600087803b15801561082857600080fd5b505af115801561083c573d6000803e3d6000fd5b505050506040513d601f19601f820116820180604052508101906108609190610bce565b506108c483600360003373ffffffffffffffffffffffffffffffffffffffff1673ffffffffffffffffffffffffffffffffffffffff168152602001908152602001600020600085815260200190815260200160002054610af790919063ffffffff16565b600360003373ffffffffffffffffffffffffffffffffffffffff1673ffffffffffffffffffffffffffffffffffffffff168152602001908152602001600020600084815260200190815260200160002081905550505050565b610925610a15565b73ffffffffffffffffffffffffffffffffffffffff166109436102b2565b73ffffffffffffffffffffffffffffffffffffffff1614610999576040517f08c379a000000000000000000000000000000000000000000000000000000000815260040161099090610e8d565b60405180910390fd5b600073ffffffffffffffffffffffffffffffffffffffff168173ffffffffffffffffffffffffffffffffffffffff161415610a09576040517f08c379a0000000000000000000000000000000000000000000000000000000008152600401610a0090610e4d565b60405180910390fd5b610a1281610a1d565b50565b600033905090565b60008060009054906101000a900473ffffffffffffffffffffffffffffffffffffffff169050816000806101000a81548173ffffffffffffffffffffffffffffffffffffffff021916908373ffffffffffffffffffffffffffffffffffffffff1602179055508173ffffffffffffffffffffffffffffffffffffffff168173ffffffffffffffffffffffffffffffffffffffff167f8be0079c531659141344cd1fd0a4f28419497f9722a3daafe3b4186f6b6457e060405160405180910390a35050565b60008183610aef9190610f4f565b905092915050565b60008183610b059190610ef9565b905092915050565b600081359050610b1c816110d3565b92915050565b600081519050610b31816110ea565b92915050565b600081359050610b4681611101565b92915050565b600081359050610b5b81611118565b92915050565b600060208284031215610b7757610b76611004565b5b6000610b8584828501610b0d565b91505092915050565b60008060408385031215610ba557610ba4611004565b5b6000610bb385828601610b0d565b9250506020610bc485828601610b37565b9150509250929050565b600060208284031215610be457610be3611004565b5b6000610bf284828501610b22565b91505092915050565b600060208284031215610c1157610c10611004565b5b6000610c1f84828501610b37565b91505092915050565b60008060408385031215610c3f57610c3e611004565b5b6000610c4d85828601610b37565b9250506020610c5e85828601610b0d565b9150509250929050565b600060208284031215610c7e57610c7d611004565b5b6000610c8c84828501610b4c565b91505092915050565b60008060408385031215610cac57610cab611004565b5b6000610cba85828601610b4c565b9250506020610ccb85828601610b37565b9150509250929050565b610cde81610f83565b82525050565b610ced81610fa1565b82525050565b6000610d00602683610ee8565b9150610d0b82611009565b604082019050919050565b6000610d23601483610ee8565b9150610d2e82611058565b602082019050919050565b6000610d46602083610ee8565b9150610d5182611081565b602082019050919050565b6000610d69601683610ee8565b9150610d74826110aa565b602082019050919050565b610d8881610fcb565b82525050565b6000602082019050610da36000830184610cd5565b92915050565b6000606082019050610dbe6000830186610cd5565b610dcb6020830185610cd5565b610dd86040830184610d7f565b949350505050565b6000604082019050610df56000830185610cd5565b610e026020830184610d7f565b9392505050565b6000602082019050610e1e6000830184610ce4565b92915050565b6000604082019050610e396000830185610ce4565b610e466020830184610cd5565b9392505050565b60006020820190508181036000830152610e6681610cf3565b9050919050565b60006020820190508181036000830152610e8681610d16565b9050919050565b60006020820190508181036000830152610ea681610d39565b9050919050565b60006020820190508181036000830152610ec681610d5c565b9050919050565b6000602082019050610ee26000830184610d7f565b92915050565b600082825260208201905092915050565b6000610f0482610fcb565b9150610f0f83610fcb565b9250827fffffffffffffffffffffffffffffffffffffffffffffffffffffffffffffffff03821115610f4457610f43610fd5565b5b828201905092915050565b6000610f5a82610fcb565b9150610f6583610fcb565b925082821015610f7857610f77610fd5565b5b828203905092915050565b6000610f8e82610fab565b9050919050565b60008115159050919050565b6000819050919050565b600073ffffffffffffffffffffffffffffffffffffffff82169050919050565b6000819050919050565b7f4e487b7100000000000000000000000000000000000000000000000000000000600052601160045260246000fd5b600080fd5b7f4f776e61626c653a206e6577206f776e657220697320746865207a65726f206160008201527f6464726573730000000000000000000000000000000000000000000000000000602082015250565b7f546f6b656e20646f6573206e6f74206578697374000000000000000000000000600082015250565b7f4f776e61626c653a2063616c6c6572206973206e6f7420746865206f776e6572600082015250565b7f42616c616e6365206e6f742073756666696369656e7400000000000000000000600082015250565b6110dc81610f83565b81146110e757600080fd5b50565b6110f381610f95565b81146110fe57600080fd5b50565b61110a81610fa1565b811461111557600080fd5b50565b61112181610fcb565b811461112c57600080fd5b5056fea26469706673582212208d79dcaed217e9b1921c400660a3b4e2032c72fb35077ea4d7689cf65005235464736f6c63430008070033",
  "immutableReferences": {},
  "source": "// SPDX-License-Identifier: MIT\n\npragma solidity ^0.8.0;\n\nimport \"../node_modules/@openzeppelin/contracts/token/ERC20/IERC20.sol\";\nimport \"../node_modules/@openzeppelin/contracts/utils/math/SafeMath.sol\";\nimport \"../node_modules/@openzeppelin/contracts/access/Ownable.sol\";\n\ncontract Wallet is Ownable {\n  using SafeMath for uint256;\n\n  struct Token {\n    bytes32 ticker;\n    address tokenAddress;\n  }\n  mapping(bytes32 => Token) public tokenMapping;\n  bytes32[] public tokenList;\n\n  mapping(address => mapping(bytes32 => uint256)) public balances;\n\n  modifier tokenExist(bytes32 ticker) {\n    require(tokenMapping[ticker].tokenAddress != address(0),\n            \"Token does not exist\");\n    _;\n  }\n\n  function addToken(bytes32 ticker, address tokenAddress) external onlyOwner {\n    tokenMapping[ticker] = Token(ticker, tokenAddress);\n    tokenList.push(ticker);\n  }\n\n  function deposit(uint amount, bytes32 ticker) external tokenExist(ticker) {\n    IERC20(tokenMapping[ticker].tokenAddress)\n      .transferFrom(msg.sender, address(this), amount);\n    balances[msg.sender][ticker] = balances[msg.sender][ticker].add(amount);\n  }\n\n  function withdraw(uint amount, bytes32 ticker) external tokenExist(ticker) {\n    require(balances[msg.sender][ticker] >= amount,\n            \"Balance not sufficient\");\n\n    balances[msg.sender][ticker] = balances[msg.sender][ticker].sub(amount);\n    IERC20(tokenMapping[ticker].tokenAddress)\n      .transfer(msg.sender, amount);\n  }\n\n}\n",
  "sourcePath": "/Users/local-admin/repos/ivan-smart-contracts/project_201/dex/contracts/Wallet.sol",
  "compiler": {
    "name": "solc",
    "version": "0.8.7+commit.e28d00a7.Emscripten.clang"
  },
  "schemaVersion": "3.4.3",
  "updatedAt": "2021-08-26T16:42:38.848Z",
  "devdoc": {
    "kind": "dev",
    "methods": {
      "owner()": {
        "details": "Returns the address of the current owner."
      },
      "renounceOwnership()": {
        "details": "Leaves the contract without owner. It will not be possible to call `onlyOwner` functions anymore. Can only be called by the current owner. NOTE: Renouncing ownership will leave the contract without an owner, thereby removing any functionality that is only available to the owner."
      },
      "transferOwnership(address)": {
        "details": "Transfers ownership of the contract to a new account (`newOwner`). Can only be called by the current owner."
      }
    },
    "version": 1
  },
  "userdoc": {
    "kind": "user",
    "methods": {},
    "version": 1
  }
}