{
  "contractName": "Wallet",
  "abi": [
    {
      "inputs": [
        {
          "internalType": "address[]",
          "name": "_owners",
          "type": "address[]"
        },
        {
          "internalType": "uint256",
          "name": "_limit",
          "type": "uint256"
        }
      ],
      "stateMutability": "nonpayable",
      "type": "constructor"
    },
    {
      "anonymous": false,
      "inputs": [
        {
          "indexed": false,
          "internalType": "uint256",
          "name": "_id",
          "type": "uint256"
        },
        {
          "indexed": false,
          "internalType": "uint256",
          "name": "_approvals",
          "type": "uint256"
        },
        {
          "indexed": false,
          "internalType": "address",
          "name": "_approver",
          "type": "address"
        }
      ],
      "name": "ApprovalReceived",
      "type": "event"
    },
    {
      "anonymous": false,
      "inputs": [
        {
          "indexed": false,
          "internalType": "uint256",
          "name": "_id",
          "type": "uint256"
        }
      ],
      "name": "TransferApproved",
      "type": "event"
    },
    {
      "anonymous": false,
      "inputs": [
        {
          "indexed": false,
          "internalType": "uint256",
          "name": "_id",
          "type": "uint256"
        },
        {
          "indexed": false,
          "internalType": "uint256",
          "name": "_amount",
          "type": "uint256"
        },
        {
          "indexed": false,
          "internalType": "address",
          "name": "_initiator",
          "type": "address"
        },
        {
          "indexed": false,
          "internalType": "address",
          "name": "_receiver",
          "type": "address"
        }
      ],
      "name": "TransferRequestCreated",
      "type": "event"
    },
    {
      "inputs": [
        {
          "internalType": "uint256",
          "name": "",
          "type": "uint256"
        }
      ],
      "name": "owners",
      "outputs": [
        {
          "internalType": "address",
          "name": "",
          "type": "address"
        }
      ],
      "stateMutability": "view",
      "type": "function",
      "constant": true
    },
    {
      "inputs": [],
      "name": "deposit",
      "outputs": [],
      "stateMutability": "payable",
      "type": "function",
      "payable": true
    },
    {
      "inputs": [
        {
          "internalType": "uint256",
          "name": "_amount",
          "type": "uint256"
        },
        {
          "internalType": "address payable",
          "name": "_receiver",
          "type": "address"
        }
      ],
      "name": "createTransfer",
      "outputs": [],
      "stateMutability": "nonpayable",
      "type": "function"
    },
    {
      "inputs": [
        {
          "internalType": "uint256",
          "name": "_id",
          "type": "uint256"
        }
      ],
      "name": "approve",
      "outputs": [],
      "stateMutability": "nonpayable",
      "type": "function"
    },
    {
      "inputs": [],
      "name": "getTransferRequests",
      "outputs": [
        {
          "components": [
            {
              "internalType": "uint256",
              "name": "amount",
              "type": "uint256"
            },
            {
              "internalType": "address payable",
              "name": "receiver",
              "type": "address"
            },
            {
              "internalType": "uint256",
              "name": "approvals",
              "type": "uint256"
            },
            {
              "internalType": "bool",
              "name": "hasBeenSent",
              "type": "bool"
            },
            {
              "internalType": "uint256",
              "name": "id",
              "type": "uint256"
            }
          ],
          "internalType": "struct Wallet.Transfer[]",
          "name": "",
          "type": "tuple[]"
        }
      ],
      "stateMutability": "view",
      "type": "function",
      "constant": true
    }
  ],
  "bytecode": "0x60806040523480156200001157600080fd5b5060405162000e6938038062000e698339818101604052810190620000379190620001c8565b81600090805190602001906200004f9291906200005f565b50806001819055505050620002f9565b828054828255906000526020600020908101928215620000db579160200282015b82811115620000da5782518260006101000a81548173ffffffffffffffffffffffffffffffffffffffff021916908373ffffffffffffffffffffffffffffffffffffffff1602179055509160200191906001019062000080565b5b509050620000ea9190620000ee565b5090565b5b8082111562000109576000816000905550600101620000ef565b5090565b6000815190506200011e81620002c5565b92915050565b600082601f8301126200013657600080fd5b81516200014d620001478262000256565b62000222565b915081818352602084019350602081019050838560208402820111156200017357600080fd5b60005b83811015620001a757816200018c88826200010d565b84526020840193506020830192505060018101905062000176565b5050505092915050565b600081519050620001c281620002df565b92915050565b60008060408385031215620001dc57600080fd5b600083015167ffffffffffffffff811115620001f757600080fd5b620002058582860162000124565b92505060206200021885828601620001b1565b9150509250929050565b6000604051905081810181811067ffffffffffffffff821117156200024c576200024b620002c3565b5b8060405250919050565b600067ffffffffffffffff821115620002745762000273620002c3565b5b602082029050602081019050919050565b6000620002928262000299565b9050919050565b600073ffffffffffffffffffffffffffffffffffffffff82169050919050565b6000819050919050565bfe5b620002d08162000285565b8114620002dc57600080fd5b50565b620002ea81620002b9565b8114620002f657600080fd5b50565b610b6080620003096000396000f3fe60806040526004361061004a5760003560e01c8063025e7c271461004f5780634c12fa471461008c578063a04ef145146100b5578063b759f954146100e0578063d0e30db014610109575b600080fd5b34801561005b57600080fd5b50610076600480360381019061007191906107c2565b610113565b604051610083919061095f565b60405180910390f35b34801561009857600080fd5b506100b360048036038101906100ae91906107eb565b610152565b005b3480156100c157600080fd5b506100ca610331565b6040516100d7919061097a565b60405180910390f35b3480156100ec57600080fd5b50610107600480360381019061010291906107c2565b61041f565b005b610111610796565b005b6000818154811061012357600080fd5b906000526020600020016000915054906101000a900473ffffffffffffffffffffffffffffffffffffffff1681565b6000805b6000805490508110156101e0573373ffffffffffffffffffffffffffffffffffffffff166000828154811061018757fe5b9060005260206000200160009054906101000a900473ffffffffffffffffffffffffffffffffffffffff1673ffffffffffffffffffffffffffffffffffffffff1614156101d357600191505b8080600101915050610156565b5060011515811515146101f257600080fd5b7f099c4ec4ecfc26f7c8b27aeee5443f92120fa2c4e91ba6020369ae71a4d4427860028054905084338560405161022c94939291906109ee565b60405180910390a160026040518060a001604052808581526020018473ffffffffffffffffffffffffffffffffffffffff1681526020016000815260200160001515815260200160028054905081525090806001815401808255809150506001900390600052602060002090600502016000909190919091506000820151816000015560208201518160010160006101000a81548173ffffffffffffffffffffffffffffffffffffffff021916908373ffffffffffffffffffffffffffffffffffffffff1602179055506040820151816002015560608201518160030160006101000a81548160ff021916908315150217905550608082015181600401555050505050565b60606002805480602002602001604051908101604052809291908181526020016000905b8282101561041657838290600052602060002090600502016040518060a0016040529081600082015481526020016001820160009054906101000a900473ffffffffffffffffffffffffffffffffffffffff1673ffffffffffffffffffffffffffffffffffffffff1673ffffffffffffffffffffffffffffffffffffffff168152602001600282015481526020016003820160009054906101000a900460ff1615151515815260200160048201548152505081526020019060010190610355565b50505050905090565b6000805b6000805490508110156104ad573373ffffffffffffffffffffffffffffffffffffffff166000828154811061045457fe5b9060005260206000200160009054906101000a900473ffffffffffffffffffffffffffffffffffffffff1673ffffffffffffffffffffffffffffffffffffffff1614156104a057600191505b8080600101915050610423565b5060011515811515146104bf57600080fd5b60001515600360003373ffffffffffffffffffffffffffffffffffffffff1673ffffffffffffffffffffffffffffffffffffffff168152602001908152602001600020600084815260200190815260200160002060009054906101000a900460ff1615151461052d57600080fd5b600015156002838154811061053e57fe5b906000526020600020906005020160030160009054906101000a900460ff1615151461056957600080fd5b6001600360003373ffffffffffffffffffffffffffffffffffffffff1673ffffffffffffffffffffffffffffffffffffffff168152602001908152602001600020600084815260200190815260200160002060006101000a81548160ff021916908315150217905550600282815481106105df57fe5b9060005260206000209060050201600201600081548092919060010191905055507ffec9d12d15ee8c8b836a58347cb0d4980db38411bcd0b83662cee48fb20b6dee826002848154811061062f57fe5b90600052602060002090600502016002015433604051610651939291906109b7565b60405180910390a16001546002838154811061066957fe5b906000526020600020906005020160020154106107925760016002838154811061068f57fe5b906000526020600020906005020160030160006101000a81548160ff021916908315150217905550600282815481106106c457fe5b906000526020600020906005020160010160009054906101000a900473ffffffffffffffffffffffffffffffffffffffff1673ffffffffffffffffffffffffffffffffffffffff166108fc6002848154811061071c57fe5b9060005260206000209060050201600001549081150290604051600060405180830381858888f19350505050158015610759573d6000803e3d6000fd5b507fd9bbf1d8bef570b7e92ef1ba025425fc15915ae01f3d3be144cdc8be05442eb582604051610789919061099c565b60405180910390a15b5050565b565b6000813590506107a781610afc565b92915050565b6000813590506107bc81610b13565b92915050565b6000602082840312156107d457600080fd5b60006107e2848285016107ad565b91505092915050565b600080604083850312156107fe57600080fd5b600061080c858286016107ad565b925050602061081d85828601610798565b9150509250929050565b600061083383836108d9565b60a08301905092915050565b61084881610ac6565b82525050565b61085781610a7e565b82525050565b61086681610a6c565b82525050565b600061087782610a43565b6108818185610a5b565b935061088c83610a33565b8060005b838110156108bd5781516108a48882610827565b97506108af83610a4e565b925050600181019050610890565b5085935050505092915050565b6108d381610a90565b82525050565b60a0820160008201516108ef6000850182610941565b506020820151610902602085018261084e565b5060408201516109156040850182610941565b50606082015161092860608501826108ca565b50608082015161093b6080850182610941565b50505050565b61094a81610abc565b82525050565b61095981610abc565b82525050565b6000602082019050610974600083018461085d565b92915050565b60006020820190508181036000830152610994818461086c565b905092915050565b60006020820190506109b16000830184610950565b92915050565b60006060820190506109cc6000830186610950565b6109d96020830185610950565b6109e6604083018461083f565b949350505050565b6000608082019050610a036000830187610950565b610a106020830186610950565b610a1d604083018561083f565b610a2a606083018461083f565b95945050505050565b6000819050602082019050919050565b600081519050919050565b6000602082019050919050565b600082825260208201905092915050565b6000610a7782610a9c565b9050919050565b6000610a8982610a9c565b9050919050565b60008115159050919050565b600073ffffffffffffffffffffffffffffffffffffffff82169050919050565b6000819050919050565b6000610ad182610ad8565b9050919050565b6000610ae382610aea565b9050919050565b6000610af582610a9c565b9050919050565b610b0581610a7e565b8114610b1057600080fd5b50565b610b1c81610abc565b8114610b2757600080fd5b5056fea26469706673582212204e1b867cc097c80abfebfd2df95e6888aa904224d17dafaddadf62dc3b366f5264736f6c63430007050033",
  "immutableReferences": {},
  "source": "pragma solidity 0.7.5;\npragma abicoder v2;\n\ncontract Wallet {\n    address[] public owners;\n    uint limit;\n    \n    struct Transfer{\n        uint amount;\n        address payable receiver;\n        uint approvals;\n        bool hasBeenSent;\n        uint id;\n    }\n    \n    event TransferRequestCreated(uint _id, uint _amount, address _initiator, address _receiver);\n    event ApprovalReceived(uint _id, uint _approvals, address _approver);\n    event TransferApproved(uint _id);\n\n    Transfer[] transferRequests;\n    \n    mapping(address => mapping(uint => bool)) approvals;\n    \n    //Should only allow people in the owners list to continue the execution.\n    modifier onlyOwners(){\n        bool owner = false;\n        for(uint i=0; i<owners.length;i++){\n            if(owners[i] == msg.sender){\n                owner = true;\n            }\n        }\n        require(owner == true);\n        _;\n    }\n    //Should initialize the owners list and the limit \n    constructor(address[] memory _owners, uint _limit) {\n        owners = _owners;\n        limit = _limit;\n    }\n    \n    //Empty function\n    function deposit() public payable {}\n    \n    //Create an instance of the Transfer struct and add it to the transferRequests array\n    function createTransfer(uint _amount, address payable _receiver) public onlyOwners {\n        emit TransferRequestCreated(transferRequests.length, _amount, msg.sender, _receiver);\n        transferRequests.push(\n            Transfer(_amount, _receiver, 0, false, transferRequests.length)\n        );\n        \n    }\n    \n    //Set your approval for one of the transfer requests.\n    //Need to update the Transfer object.\n    //Need to update the mapping to record the approval for the msg.sender.\n    //When the amount of approvals for a transfer has reached the limit, this function should send the transfer to the recipient.\n    //An owner should not be able to vote twice.\n    //An owner should not be able to vote on a tranfer request that has already been sent.\n    function approve(uint _id) public onlyOwners {\n        require(approvals[msg.sender][_id] == false);\n        require(transferRequests[_id].hasBeenSent == false);\n        \n        approvals[msg.sender][_id] = true;\n        transferRequests[_id].approvals++;\n        \n        emit ApprovalReceived(_id, transferRequests[_id].approvals, msg.sender);\n        \n        if(transferRequests[_id].approvals >= limit){\n            transferRequests[_id].hasBeenSent = true;\n            transferRequests[_id].receiver.transfer(transferRequests[_id].amount);\n            emit TransferApproved(_id);\n        }\n    }\n    \n    //Should return all transfer requests\n    function getTransferRequests() public view returns (Transfer[] memory){\n        return transferRequests;\n    }\n    \n    \n}\n",
  "sourcePath": "/Users/local-admin/repos/ivan-smart-contracts/project_101/201_wallet/contracts/wallet.sol",
  "compiler": {
    "name": "solc",
    "version": "0.7.5+commit.eb77ed08.Emscripten.clang"
  },
  "schemaVersion": "3.4.3",
  "updatedAt": "2021-08-24T21:47:02.277Z",
  "networkType": "ethereum",
  "devdoc": {
    "kind": "dev",
    "methods": {},
    "version": 1
  },
  "userdoc": {
    "kind": "user",
    "methods": {},
    "version": 1
  }
}