{
  "contractName": "CapperToken",
  "abi": [
    {
      "inputs": [
        {
          "internalType": "string",
          "name": "name",
          "type": "string"
        },
        {
          "internalType": "string",
          "name": "symbol",
          "type": "string"
        },
        {
          "internalType": "uint256",
          "name": "cap_",
          "type": "uint256"
        }
      ],
      "stateMutability": "nonpayable",
      "type": "constructor"
    },
    {
      "anonymous": false,
      "inputs": [
        {
          "indexed": true,
          "internalType": "address",
          "name": "owner",
          "type": "address"
        },
        {
          "indexed": true,
          "internalType": "address",
          "name": "spender",
          "type": "address"
        },
        {
          "indexed": false,
          "internalType": "uint256",
          "name": "value",
          "type": "uint256"
        }
      ],
      "name": "Approval",
      "type": "event"
    },
    {
      "anonymous": false,
      "inputs": [
        {
          "indexed": false,
          "internalType": "address",
          "name": "account",
          "type": "address"
        }
      ],
      "name": "Paused",
      "type": "event"
    },
    {
      "anonymous": false,
      "inputs": [
        {
          "indexed": true,
          "internalType": "bytes32",
          "name": "role",
          "type": "bytes32"
        },
        {
          "indexed": true,
          "internalType": "bytes32",
          "name": "previousAdminRole",
          "type": "bytes32"
        },
        {
          "indexed": true,
          "internalType": "bytes32",
          "name": "newAdminRole",
          "type": "bytes32"
        }
      ],
      "name": "RoleAdminChanged",
      "type": "event"
    },
    {
      "anonymous": false,
      "inputs": [
        {
          "indexed": true,
          "internalType": "bytes32",
          "name": "role",
          "type": "bytes32"
        },
        {
          "indexed": true,
          "internalType": "address",
          "name": "account",
          "type": "address"
        },
        {
          "indexed": true,
          "internalType": "address",
          "name": "sender",
          "type": "address"
        }
      ],
      "name": "RoleGranted",
      "type": "event"
    },
    {
      "anonymous": false,
      "inputs": [
        {
          "indexed": true,
          "internalType": "bytes32",
          "name": "role",
          "type": "bytes32"
        },
        {
          "indexed": true,
          "internalType": "address",
          "name": "account",
          "type": "address"
        },
        {
          "indexed": true,
          "internalType": "address",
          "name": "sender",
          "type": "address"
        }
      ],
      "name": "RoleRevoked",
      "type": "event"
    },
    {
      "anonymous": false,
      "inputs": [
        {
          "indexed": true,
          "internalType": "address",
          "name": "from",
          "type": "address"
        },
        {
          "indexed": true,
          "internalType": "address",
          "name": "to",
          "type": "address"
        },
        {
          "indexed": false,
          "internalType": "uint256",
          "name": "value",
          "type": "uint256"
        }
      ],
      "name": "Transfer",
      "type": "event"
    },
    {
      "anonymous": false,
      "inputs": [
        {
          "indexed": false,
          "internalType": "address",
          "name": "account",
          "type": "address"
        }
      ],
      "name": "Unpaused",
      "type": "event"
    },
    {
      "inputs": [],
      "name": "CAPPER_ROLE",
      "outputs": [
        {
          "internalType": "bytes32",
          "name": "",
          "type": "bytes32"
        }
      ],
      "stateMutability": "view",
      "type": "function",
      "constant": true
    },
    {
      "inputs": [],
      "name": "DEFAULT_ADMIN_ROLE",
      "outputs": [
        {
          "internalType": "bytes32",
          "name": "",
          "type": "bytes32"
        }
      ],
      "stateMutability": "view",
      "type": "function",
      "constant": true
    },
    {
      "inputs": [],
      "name": "MINTER_ROLE",
      "outputs": [
        {
          "internalType": "bytes32",
          "name": "",
          "type": "bytes32"
        }
      ],
      "stateMutability": "view",
      "type": "function",
      "constant": true
    },
    {
      "inputs": [],
      "name": "PAUSER_ROLE",
      "outputs": [
        {
          "internalType": "bytes32",
          "name": "",
          "type": "bytes32"
        }
      ],
      "stateMutability": "view",
      "type": "function",
      "constant": true
    },
    {
      "inputs": [
        {
          "internalType": "address",
          "name": "owner",
          "type": "address"
        },
        {
          "internalType": "address",
          "name": "spender",
          "type": "address"
        }
      ],
      "name": "allowance",
      "outputs": [
        {
          "internalType": "uint256",
          "name": "",
          "type": "uint256"
        }
      ],
      "stateMutability": "view",
      "type": "function",
      "constant": true
    },
    {
      "inputs": [
        {
          "internalType": "address",
          "name": "spender",
          "type": "address"
        },
        {
          "internalType": "uint256",
          "name": "amount",
          "type": "uint256"
        }
      ],
      "name": "approve",
      "outputs": [
        {
          "internalType": "bool",
          "name": "",
          "type": "bool"
        }
      ],
      "stateMutability": "nonpayable",
      "type": "function"
    },
    {
      "inputs": [
        {
          "internalType": "address",
          "name": "account",
          "type": "address"
        }
      ],
      "name": "balanceOf",
      "outputs": [
        {
          "internalType": "uint256",
          "name": "",
          "type": "uint256"
        }
      ],
      "stateMutability": "view",
      "type": "function",
      "constant": true
    },
    {
      "inputs": [
        {
          "internalType": "uint256",
          "name": "amount",
          "type": "uint256"
        }
      ],
      "name": "burn",
      "outputs": [],
      "stateMutability": "nonpayable",
      "type": "function"
    },
    {
      "inputs": [
        {
          "internalType": "address",
          "name": "account",
          "type": "address"
        },
        {
          "internalType": "uint256",
          "name": "amount",
          "type": "uint256"
        }
      ],
      "name": "burnFrom",
      "outputs": [],
      "stateMutability": "nonpayable",
      "type": "function"
    },
    {
      "inputs": [],
      "name": "decimals",
      "outputs": [
        {
          "internalType": "uint8",
          "name": "",
          "type": "uint8"
        }
      ],
      "stateMutability": "view",
      "type": "function",
      "constant": true
    },
    {
      "inputs": [
        {
          "internalType": "address",
          "name": "spender",
          "type": "address"
        },
        {
          "internalType": "uint256",
          "name": "subtractedValue",
          "type": "uint256"
        }
      ],
      "name": "decreaseAllowance",
      "outputs": [
        {
          "internalType": "bool",
          "name": "",
          "type": "bool"
        }
      ],
      "stateMutability": "nonpayable",
      "type": "function"
    },
    {
      "inputs": [
        {
          "internalType": "bytes32",
          "name": "role",
          "type": "bytes32"
        }
      ],
      "name": "getRoleAdmin",
      "outputs": [
        {
          "internalType": "bytes32",
          "name": "",
          "type": "bytes32"
        }
      ],
      "stateMutability": "view",
      "type": "function",
      "constant": true
    },
    {
      "inputs": [
        {
          "internalType": "bytes32",
          "name": "role",
          "type": "bytes32"
        },
        {
          "internalType": "uint256",
          "name": "index",
          "type": "uint256"
        }
      ],
      "name": "getRoleMember",
      "outputs": [
        {
          "internalType": "address",
          "name": "",
          "type": "address"
        }
      ],
      "stateMutability": "view",
      "type": "function",
      "constant": true
    },
    {
      "inputs": [
        {
          "internalType": "bytes32",
          "name": "role",
          "type": "bytes32"
        }
      ],
      "name": "getRoleMemberCount",
      "outputs": [
        {
          "internalType": "uint256",
          "name": "",
          "type": "uint256"
        }
      ],
      "stateMutability": "view",
      "type": "function",
      "constant": true
    },
    {
      "inputs": [
        {
          "internalType": "bytes32",
          "name": "role",
          "type": "bytes32"
        },
        {
          "internalType": "address",
          "name": "account",
          "type": "address"
        }
      ],
      "name": "grantRole",
      "outputs": [],
      "stateMutability": "nonpayable",
      "type": "function"
    },
    {
      "inputs": [
        {
          "internalType": "bytes32",
          "name": "role",
          "type": "bytes32"
        },
        {
          "internalType": "address",
          "name": "account",
          "type": "address"
        }
      ],
      "name": "hasRole",
      "outputs": [
        {
          "internalType": "bool",
          "name": "",
          "type": "bool"
        }
      ],
      "stateMutability": "view",
      "type": "function",
      "constant": true
    },
    {
      "inputs": [
        {
          "internalType": "address",
          "name": "spender",
          "type": "address"
        },
        {
          "internalType": "uint256",
          "name": "addedValue",
          "type": "uint256"
        }
      ],
      "name": "increaseAllowance",
      "outputs": [
        {
          "internalType": "bool",
          "name": "",
          "type": "bool"
        }
      ],
      "stateMutability": "nonpayable",
      "type": "function"
    },
    {
      "inputs": [],
      "name": "name",
      "outputs": [
        {
          "internalType": "string",
          "name": "",
          "type": "string"
        }
      ],
      "stateMutability": "view",
      "type": "function",
      "constant": true
    },
    {
      "inputs": [],
      "name": "paused",
      "outputs": [
        {
          "internalType": "bool",
          "name": "",
          "type": "bool"
        }
      ],
      "stateMutability": "view",
      "type": "function",
      "constant": true
    },
    {
      "inputs": [
        {
          "internalType": "bytes32",
          "name": "role",
          "type": "bytes32"
        },
        {
          "internalType": "address",
          "name": "account",
          "type": "address"
        }
      ],
      "name": "renounceRole",
      "outputs": [],
      "stateMutability": "nonpayable",
      "type": "function"
    },
    {
      "inputs": [
        {
          "internalType": "bytes32",
          "name": "role",
          "type": "bytes32"
        },
        {
          "internalType": "address",
          "name": "account",
          "type": "address"
        }
      ],
      "name": "revokeRole",
      "outputs": [],
      "stateMutability": "nonpayable",
      "type": "function"
    },
    {
      "inputs": [
        {
          "internalType": "bytes4",
          "name": "interfaceId",
          "type": "bytes4"
        }
      ],
      "name": "supportsInterface",
      "outputs": [
        {
          "internalType": "bool",
          "name": "",
          "type": "bool"
        }
      ],
      "stateMutability": "view",
      "type": "function",
      "constant": true
    },
    {
      "inputs": [],
      "name": "symbol",
      "outputs": [
        {
          "internalType": "string",
          "name": "",
          "type": "string"
        }
      ],
      "stateMutability": "view",
      "type": "function",
      "constant": true
    },
    {
      "inputs": [],
      "name": "totalSupply",
      "outputs": [
        {
          "internalType": "uint256",
          "name": "",
          "type": "uint256"
        }
      ],
      "stateMutability": "view",
      "type": "function",
      "constant": true
    },
    {
      "inputs": [
        {
          "internalType": "address",
          "name": "recipient",
          "type": "address"
        },
        {
          "internalType": "uint256",
          "name": "amount",
          "type": "uint256"
        }
      ],
      "name": "transfer",
      "outputs": [
        {
          "internalType": "bool",
          "name": "",
          "type": "bool"
        }
      ],
      "stateMutability": "nonpayable",
      "type": "function"
    },
    {
      "inputs": [
        {
          "internalType": "address",
          "name": "sender",
          "type": "address"
        },
        {
          "internalType": "address",
          "name": "recipient",
          "type": "address"
        },
        {
          "internalType": "uint256",
          "name": "amount",
          "type": "uint256"
        }
      ],
      "name": "transferFrom",
      "outputs": [
        {
          "internalType": "bool",
          "name": "",
          "type": "bool"
        }
      ],
      "stateMutability": "nonpayable",
      "type": "function"
    },
    {
      "inputs": [
        {
          "internalType": "address",
          "name": "to",
          "type": "address"
        },
        {
          "internalType": "uint256",
          "name": "amount",
          "type": "uint256"
        }
      ],
      "name": "mint",
      "outputs": [],
      "stateMutability": "nonpayable",
      "type": "function"
    },
    {
      "inputs": [],
      "name": "pause",
      "outputs": [],
      "stateMutability": "nonpayable",
      "type": "function"
    },
    {
      "inputs": [],
      "name": "unpause",
      "outputs": [],
      "stateMutability": "nonpayable",
      "type": "function"
    },
    {
      "inputs": [],
      "name": "cap",
      "outputs": [
        {
          "internalType": "uint256",
          "name": "",
          "type": "uint256"
        }
      ],
      "stateMutability": "view",
      "type": "function",
      "constant": true
    },
    {
      "inputs": [
        {
          "internalType": "uint256",
          "name": "cap_",
          "type": "uint256"
        }
      ],
      "name": "modifyCap",
      "outputs": [],
      "stateMutability": "nonpayable",
      "type": "function"
    }
  ],
  "bytecode": "0x60806040523480156200001157600080fd5b5060405162003e7a38038062003e7a8339818101604052810190620000379190620005a0565b82828160059080519060200190620000519291906200045b565b5080600690805190602001906200006a9291906200045b565b5050506000600760006101000a81548160ff02191690831515021790555060008111620000ce576040517f08c379a0000000000000000000000000000000000000000000000000000000008152600401620000c59062000661565b60405180910390fd5b80600881905550620000f96000801b620000ed620001c560201b60201c565b620001cd60201b60201c565b6200013a7f9f2df0fed2c77648de5860a4cc508cd0818c85b8b8a1ab4ceeef8d981c8956a66200012e620001c560201b60201c565b620001cd60201b60201c565b6200017b7f65d7a28e3265b37a6474929f336521b332c1681b933f6cb9f3376673440d862a6200016f620001c560201b60201c565b620001cd60201b60201c565b620001bc7f585dbb3f830c4325b9ffb1ad42c16ada76c518747b0fb7ee297b261fc6a0f29f620001b0620001c560201b60201c565b620001cd60201b60201c565b50505062000865565b600033905090565b620001e482826200021560201b620010011760201c565b6200021081600160008581526020019081526020016000206200022b60201b6200100f1790919060201c565b505050565b6200022782826200026360201b60201c565b5050565b60006200025b836000018373ffffffffffffffffffffffffffffffffffffffff1660001b6200035460201b60201c565b905092915050565b620002758282620003ce60201b60201c565b6200035057600160008084815260200190815260200160002060000160008373ffffffffffffffffffffffffffffffffffffffff1673ffffffffffffffffffffffffffffffffffffffff16815260200190815260200160002060006101000a81548160ff021916908315150217905550620002f5620001c560201b60201c565b73ffffffffffffffffffffffffffffffffffffffff168173ffffffffffffffffffffffffffffffffffffffff16837f2f8788117e7eff1d82e926ec794901d17c78024a50270940304540a733656f0d60405160405180910390a45b5050565b60006200036883836200043860201b60201c565b620003c3578260000182908060018154018082558091505060019003906000526020600020016000909190919091505582600001805490508360010160008481526020019081526020016000208190555060019050620003c8565b600090505b92915050565b600080600084815260200190815260200160002060000160008373ffffffffffffffffffffffffffffffffffffffff1673ffffffffffffffffffffffffffffffffffffffff16815260200190815260200160002060009054906101000a900460ff16905092915050565b600080836001016000848152602001908152602001600020541415905092915050565b828054620004699062000733565b90600052602060002090601f0160209004810192826200048d5760008555620004d9565b82601f10620004a857805160ff1916838001178555620004d9565b82800160010185558215620004d9579182015b82811115620004d8578251825591602001919060010190620004bb565b5b509050620004e89190620004ec565b5090565b5b8082111562000507576000816000905550600101620004ed565b5090565b6000620005226200051c84620006ac565b62000683565b90508281526020810184848401111562000541576200054062000802565b5b6200054e848285620006fd565b509392505050565b600082601f8301126200056e576200056d620007fd565b5b8151620005808482602086016200050b565b91505092915050565b6000815190506200059a816200084b565b92915050565b600080600060608486031215620005bc57620005bb6200080c565b5b600084015167ffffffffffffffff811115620005dd57620005dc62000807565b5b620005eb8682870162000556565b935050602084015167ffffffffffffffff8111156200060f576200060e62000807565b5b6200061d8682870162000556565b9250506040620006308682870162000589565b9150509250925092565b600062000649601583620006e2565b9150620006568262000822565b602082019050919050565b600060208201905081810360008301526200067c816200063a565b9050919050565b60006200068f620006a2565b90506200069d828262000769565b919050565b6000604051905090565b600067ffffffffffffffff821115620006ca57620006c9620007ce565b5b620006d58262000811565b9050602081019050919050565b600082825260208201905092915050565b6000819050919050565b60005b838110156200071d57808201518184015260208101905062000700565b838111156200072d576000848401525b50505050565b600060028204905060018216806200074c57607f821691505b602082108114156200076357620007626200079f565b5b50919050565b620007748262000811565b810181811067ffffffffffffffff82111715620007965762000795620007ce565b5b80604052505050565b7f4e487b7100000000000000000000000000000000000000000000000000000000600052602260045260246000fd5b7f4e487b7100000000000000000000000000000000000000000000000000000000600052604160045260246000fd5b600080fd5b600080fd5b600080fd5b600080fd5b6000601f19601f8301169050919050565b7f45524332304361707065643a2063617020697320300000000000000000000000600082015250565b6200085681620006f3565b81146200086257600080fd5b50565b61360580620008756000396000f3fe608060405234801561001057600080fd5b50600436106101e55760003560e01c806370a082311161010f578063a457c2d7116100a2578063d539139311610071578063d5391393146105a6578063d547741f146105c4578063dd62ed3e146105e0578063e63ab1e914610610576101e5565b8063a457c2d7146104f8578063a9059cbb14610528578063c7108b4314610558578063ca15c87314610576576101e5565b80639010d07c116100de5780639010d07c1461045c57806391d148541461048c57806395d89b41146104bc578063a217fddf146104da576101e5565b806370a08231146103ea57806379cc67901461041a5780637e4930ae146104365780638456cb5914610452576101e5565b8063313ce567116101875780633f4ba83a116101565780633f4ba83a1461038a57806340c10f191461039457806342966c68146103b05780635c975abb146103cc576101e5565b8063313ce56714610302578063355274ea1461032057806336568abe1461033e578063395093511461035a576101e5565b806318160ddd116101c357806318160ddd1461026857806323b872dd14610286578063248a9ca3146102b65780632f2ff15d146102e6576101e5565b806301ffc9a7146101ea57806306fdde031461021a578063095ea7b314610238575b600080fd5b61020460048036038101906101ff9190612487565b61062e565b6040516102119190612910565b60405180910390f35b6102226106a8565b60405161022f9190612946565b60405180910390f35b610252600480360381019061024d919061239a565b61073a565b60405161025f9190612910565b60405180910390f35b610270610758565b60405161027d9190612c08565b60405180910390f35b6102a0600480360381019061029b9190612347565b610762565b6040516102ad9190612910565b60405180910390f35b6102d060048036038101906102cb91906123da565b61085a565b6040516102dd919061292b565b60405180910390f35b61030060048036038101906102fb9190612407565b610879565b005b61030a6108ad565b6040516103179190612c23565b60405180910390f35b6103286108b6565b6040516103359190612c08565b60405180910390f35b61035860048036038101906103539190612407565b6108c0565b005b610374600480360381019061036f919061239a565b6108f4565b6040516103819190612910565b60405180910390f35b6103926109a0565b005b6103ae60048036038101906103a9919061239a565b610a1a565b005b6103ca60048036038101906103c591906124b4565b610a98565b005b6103d4610aac565b6040516103e19190612910565b60405180910390f35b61040460048036038101906103ff91906122da565b610ac3565b6040516104119190612c08565b60405180910390f35b610434600480360381019061042f919061239a565b610b0c565b005b610450600480360381019061044b91906124b4565b610b87565b005b61045a610c01565b005b61047660048036038101906104719190612447565b610c7b565b60405161048391906128f5565b60405180910390f35b6104a660048036038101906104a19190612407565b610caa565b6040516104b39190612910565b60405180910390f35b6104c4610d14565b6040516104d19190612946565b60405180910390f35b6104e2610da6565b6040516104ef919061292b565b60405180910390f35b610512600480360381019061050d919061239a565b610dad565b60405161051f9190612910565b60405180910390f35b610542600480360381019061053d919061239a565b610e98565b60405161054f9190612910565b60405180910390f35b610560610eb6565b60405161056d919061292b565b60405180910390f35b610590600480360381019061058b91906123da565b610eda565b60405161059d9190612c08565b60405180910390f35b6105ae610efe565b6040516105bb919061292b565b60405180910390f35b6105de60048036038101906105d99190612407565b610f22565b005b6105fa60048036038101906105f59190612307565b610f56565b6040516106079190612c08565b60405180910390f35b610618610fdd565b604051610625919061292b565b60405180910390f35b60007f5a05180f000000000000000000000000000000000000000000000000000000007bffffffffffffffffffffffffffffffffffffffffffffffffffffffff1916827bffffffffffffffffffffffffffffffffffffffffffffffffffffffff191614806106a157506106a08261103f565b5b9050919050565b6060600580546106b790612e31565b80601f01602080910402602001604051908101604052809291908181526020018280546106e390612e31565b80156107305780601f1061070557610100808354040283529160200191610730565b820191906000526020600020905b81548152906001019060200180831161071357829003601f168201915b5050505050905090565b600061074e6107476110b9565b84846110c1565b6001905092915050565b6000600454905090565b600061076f84848461128c565b6000600360008673ffffffffffffffffffffffffffffffffffffffff1673ffffffffffffffffffffffffffffffffffffffff16815260200190815260200160002060006107ba6110b9565b73ffffffffffffffffffffffffffffffffffffffff1673ffffffffffffffffffffffffffffffffffffffff1681526020019081526020016000205490508281101561083a576040517f08c379a000000000000000000000000000000000000000000000000000000000815260040161083190612a68565b60405180910390fd5b61084e856108466110b9565b8584036110c1565b60019150509392505050565b6000806000838152602001908152602001600020600101549050919050565b6108838282611510565b6108a8816001600085815260200190815260200160002061100f90919063ffffffff16565b505050565b60006012905090565b6000600854905090565b6108ca8282611539565b6108ef81600160008581526020019081526020016000206115bc90919063ffffffff16565b505050565b60006109966109016110b9565b84846003600061090f6110b9565b73ffffffffffffffffffffffffffffffffffffffff1673ffffffffffffffffffffffffffffffffffffffff16815260200190815260200160002060008873ffffffffffffffffffffffffffffffffffffffff1673ffffffffffffffffffffffffffffffffffffffff168152602001908152602001600020546109919190612c65565b6110c1565b6001905092915050565b6109d17f65d7a28e3265b37a6474929f336521b332c1681b933f6cb9f3376673440d862a6109cc6110b9565b610caa565b610a10576040517f08c379a0000000000000000000000000000000000000000000000000000000008152600401610a07906129e8565b60405180910390fd5b610a186115ec565b565b610a4b7f9f2df0fed2c77648de5860a4cc508cd0818c85b8b8a1ab4ceeef8d981c8956a6610a466110b9565b610caa565b610a8a576040517f08c379a0000000000000000000000000000000000000000000000000000000008152600401610a8190612a88565b60405180910390fd5b610a94828261168e565b5050565b610aa9610aa36110b9565b826116f8565b50565b6000600760009054906101000a900460ff16905090565b6000600260008373ffffffffffffffffffffffffffffffffffffffff1673ffffffffffffffffffffffffffffffffffffffff168152602001908152602001600020549050919050565b6000610b1f83610b1a6110b9565b610f56565b905081811015610b64576040517f08c379a0000000000000000000000000000000000000000000000000000000008152600401610b5b90612aa8565b60405180910390fd5b610b7883610b706110b9565b8484036110c1565b610b8283836116f8565b505050565b610bb87f585dbb3f830c4325b9ffb1ad42c16ada76c518747b0fb7ee297b261fc6a0f29f610bb36110b9565b610caa565b610bf7576040517f08c379a0000000000000000000000000000000000000000000000000000000008152600401610bee90612b68565b60405180910390fd5b8060088190555050565b610c327f65d7a28e3265b37a6474929f336521b332c1681b933f6cb9f3376673440d862a610c2d6110b9565b610caa565b610c71576040517f08c379a0000000000000000000000000000000000000000000000000000000008152600401610c6890612b48565b60405180910390fd5b610c796118d1565b565b6000610ca2826001600086815260200190815260200160002061197490919063ffffffff16565b905092915050565b600080600084815260200190815260200160002060000160008373ffffffffffffffffffffffffffffffffffffffff1673ffffffffffffffffffffffffffffffffffffffff16815260200190815260200160002060009054906101000a900460ff16905092915050565b606060068054610d2390612e31565b80601f0160208091040260200160405190810160405280929190818152602001828054610d4f90612e31565b8015610d9c5780601f10610d7157610100808354040283529160200191610d9c565b820191906000526020600020905b815481529060010190602001808311610d7f57829003601f168201915b5050505050905090565b6000801b81565b60008060036000610dbc6110b9565b73ffffffffffffffffffffffffffffffffffffffff1673ffffffffffffffffffffffffffffffffffffffff16815260200190815260200160002060008573ffffffffffffffffffffffffffffffffffffffff1673ffffffffffffffffffffffffffffffffffffffff16815260200190815260200160002054905082811015610e79576040517f08c379a0000000000000000000000000000000000000000000000000000000008152600401610e7090612b88565b60405180910390fd5b610e8d610e846110b9565b858584036110c1565b600191505092915050565b6000610eac610ea56110b9565b848461128c565b6001905092915050565b7f585dbb3f830c4325b9ffb1ad42c16ada76c518747b0fb7ee297b261fc6a0f29f81565b6000610ef76001600084815260200190815260200160002061198e565b9050919050565b7f9f2df0fed2c77648de5860a4cc508cd0818c85b8b8a1ab4ceeef8d981c8956a681565b610f2c82826119a3565b610f5181600160008581526020019081526020016000206115bc90919063ffffffff16565b505050565b6000600360008473ffffffffffffffffffffffffffffffffffffffff1673ffffffffffffffffffffffffffffffffffffffff16815260200190815260200160002060008373ffffffffffffffffffffffffffffffffffffffff1673ffffffffffffffffffffffffffffffffffffffff16815260200190815260200160002054905092915050565b7f65d7a28e3265b37a6474929f336521b332c1681b933f6cb9f3376673440d862a81565b61100b82826119cc565b5050565b6000611037836000018373ffffffffffffffffffffffffffffffffffffffff1660001b611aac565b905092915050565b60007f7965db0b000000000000000000000000000000000000000000000000000000007bffffffffffffffffffffffffffffffffffffffffffffffffffffffff1916827bffffffffffffffffffffffffffffffffffffffffffffffffffffffff191614806110b257506110b182611b1c565b5b9050919050565b600033905090565b600073ffffffffffffffffffffffffffffffffffffffff168373ffffffffffffffffffffffffffffffffffffffff161415611131576040517f08c379a000000000000000000000000000000000000000000000000000000000815260040161112890612b28565b60405180910390fd5b600073ffffffffffffffffffffffffffffffffffffffff168273ffffffffffffffffffffffffffffffffffffffff1614156111a1576040517f08c379a000000000000000000000000000000000000000000000000000000000815260040161119890612a08565b60405180910390fd5b80600360008573ffffffffffffffffffffffffffffffffffffffff1673ffffffffffffffffffffffffffffffffffffffff16815260200190815260200160002060008473ffffffffffffffffffffffffffffffffffffffff1673ffffffffffffffffffffffffffffffffffffffff168152602001908152602001600020819055508173ffffffffffffffffffffffffffffffffffffffff168373ffffffffffffffffffffffffffffffffffffffff167f8c5be1e5ebec7d5bd14f71427d1e84f3dd0314c0f7b2291e5b200ac8c7c3b9258360405161127f9190612c08565b60405180910390a3505050565b600073ffffffffffffffffffffffffffffffffffffffff168373ffffffffffffffffffffffffffffffffffffffff1614156112fc576040517f08c379a00000000000000000000000000000000000000000000000000000000081526004016112f390612ae8565b60405180910390fd5b600073ffffffffffffffffffffffffffffffffffffffff168273ffffffffffffffffffffffffffffffffffffffff16141561136c576040517f08c379a000000000000000000000000000000000000000000000000000000000815260040161136390612988565b60405180910390fd5b611377838383611b86565b6000600260008573ffffffffffffffffffffffffffffffffffffffff1673ffffffffffffffffffffffffffffffffffffffff168152602001908152602001600020549050818110156113fe576040517f08c379a00000000000000000000000000000000000000000000000000000000081526004016113f590612a28565b60405180910390fd5b818103600260008673ffffffffffffffffffffffffffffffffffffffff1673ffffffffffffffffffffffffffffffffffffffff1681526020019081526020016000208190555081600260008573ffffffffffffffffffffffffffffffffffffffff1673ffffffffffffffffffffffffffffffffffffffff16815260200190815260200160002060008282546114939190612c65565b925050819055508273ffffffffffffffffffffffffffffffffffffffff168473ffffffffffffffffffffffffffffffffffffffff167fddf252ad1be2c89b69c2b068fc378daa952ba7f163c4a11628f55a4df523b3ef846040516114f79190612c08565b60405180910390a361150a848484611b96565b50505050565b6115198261085a565b61152a816115256110b9565b611b9b565b61153483836119cc565b505050565b6115416110b9565b73ffffffffffffffffffffffffffffffffffffffff168173ffffffffffffffffffffffffffffffffffffffff16146115ae576040517f08c379a00000000000000000000000000000000000000000000000000000000081526004016115a590612ba8565b60405180910390fd5b6115b88282611c38565b5050565b60006115e4836000018373ffffffffffffffffffffffffffffffffffffffff1660001b611d19565b905092915050565b6115f4610aac565b611633576040517f08c379a000000000000000000000000000000000000000000000000000000000815260040161162a906129a8565b60405180910390fd5b6000600760006101000a81548160ff0219169083151502179055507f5db9ee0a495bf2e6ff9c91a7834c1ba4fdd244a5e8aa4e537bd38aeae4b073aa6116776110b9565b60405161168491906128f5565b60405180910390a1565b6116966108b6565b8161169f610758565b6116a99190612c65565b11156116ea576040517f08c379a00000000000000000000000000000000000000000000000000000000081526004016116e190612b08565b60405180910390fd5b6116f48282611e2d565b5050565b600073ffffffffffffffffffffffffffffffffffffffff168273ffffffffffffffffffffffffffffffffffffffff161415611768576040517f08c379a000000000000000000000000000000000000000000000000000000000815260040161175f90612ac8565b60405180910390fd5b61177482600083611b86565b6000600260008473ffffffffffffffffffffffffffffffffffffffff1673ffffffffffffffffffffffffffffffffffffffff168152602001908152602001600020549050818110156117fb576040517f08c379a00000000000000000000000000000000000000000000000000000000081526004016117f2906129c8565b60405180910390fd5b818103600260008573ffffffffffffffffffffffffffffffffffffffff1673ffffffffffffffffffffffffffffffffffffffff1681526020019081526020016000208190555081600460008282546118539190612d15565b92505081905550600073ffffffffffffffffffffffffffffffffffffffff168373ffffffffffffffffffffffffffffffffffffffff167fddf252ad1be2c89b69c2b068fc378daa952ba7f163c4a11628f55a4df523b3ef846040516118b89190612c08565b60405180910390a36118cc83600084611b96565b505050565b6118d9610aac565b15611919576040517f08c379a000000000000000000000000000000000000000000000000000000000815260040161191090612a48565b60405180910390fd5b6001600760006101000a81548160ff0219169083151502179055507f62e78cea01bee320cd4e420270b5ea74000d11b0c9f74754ebdbfc544b05a25861195d6110b9565b60405161196a91906128f5565b60405180910390a1565b60006119838360000183611f8e565b60001c905092915050565b600061199c82600001611fb9565b9050919050565b6119ac8261085a565b6119bd816119b86110b9565b611b9b565b6119c78383611c38565b505050565b6119d68282610caa565b611aa857600160008084815260200190815260200160002060000160008373ffffffffffffffffffffffffffffffffffffffff1673ffffffffffffffffffffffffffffffffffffffff16815260200190815260200160002060006101000a81548160ff021916908315150217905550611a4d6110b9565b73ffffffffffffffffffffffffffffffffffffffff168173ffffffffffffffffffffffffffffffffffffffff16837f2f8788117e7eff1d82e926ec794901d17c78024a50270940304540a733656f0d60405160405180910390a45b5050565b6000611ab88383611fca565b611b11578260000182908060018154018082558091505060019003906000526020600020016000909190919091505582600001805490508360010160008481526020019081526020016000208190555060019050611b16565b600090505b92915050565b60007f01ffc9a7000000000000000000000000000000000000000000000000000000007bffffffffffffffffffffffffffffffffffffffffffffffffffffffff1916827bffffffffffffffffffffffffffffffffffffffffffffffffffffffff1916149050919050565b611b91838383611fed565b505050565b505050565b611ba58282610caa565b611c3457611bca8173ffffffffffffffffffffffffffffffffffffffff166014612045565b611bd88360001c6020612045565b604051602001611be99291906128bb565b6040516020818303038152906040526040517f08c379a0000000000000000000000000000000000000000000000000000000008152600401611c2b9190612946565b60405180910390fd5b5050565b611c428282610caa565b15611d1557600080600084815260200190815260200160002060000160008373ffffffffffffffffffffffffffffffffffffffff1673ffffffffffffffffffffffffffffffffffffffff16815260200190815260200160002060006101000a81548160ff021916908315150217905550611cba6110b9565b73ffffffffffffffffffffffffffffffffffffffff168173ffffffffffffffffffffffffffffffffffffffff16837ff6391f5c32d9c69d2a47ea670b442974b53935d1edc7fd64eb21e047a839171b60405160405180910390a45b5050565b60008083600101600084815260200190815260200160002054905060008114611e21576000600182611d4b9190612d15565b9050600060018660000180549050611d639190612d15565b9050818114611dd2576000866000018281548110611d8457611d83612ef0565b5b9060005260206000200154905080876000018481548110611da857611da7612ef0565b5b90600052602060002001819055508387600101600083815260200190815260200160002081905550505b85600001805480611de657611de5612ec1565b5b600190038181906000526020600020016000905590558560010160008681526020019081526020016000206000905560019350505050611e27565b60009150505b92915050565b600073ffffffffffffffffffffffffffffffffffffffff168273ffffffffffffffffffffffffffffffffffffffff161415611e9d576040517f08c379a0000000000000000000000000000000000000000000000000000000008152600401611e9490612bc8565b60405180910390fd5b611ea960008383611b86565b8060046000828254611ebb9190612c65565b9250508190555080600260008473ffffffffffffffffffffffffffffffffffffffff1673ffffffffffffffffffffffffffffffffffffffff1681526020019081526020016000206000828254611f119190612c65565b925050819055508173ffffffffffffffffffffffffffffffffffffffff16600073ffffffffffffffffffffffffffffffffffffffff167fddf252ad1be2c89b69c2b068fc378daa952ba7f163c4a11628f55a4df523b3ef83604051611f769190612c08565b60405180910390a3611f8a60008383611b96565b5050565b6000826000018281548110611fa657611fa5612ef0565b5b9060005260206000200154905092915050565b600081600001805490509050919050565b600080836001016000848152602001908152602001600020541415905092915050565b611ff8838383612281565b612000610aac565b15612040576040517f08c379a000000000000000000000000000000000000000000000000000000000815260040161203790612be8565b60405180910390fd5b505050565b6060600060028360026120589190612cbb565b6120629190612c65565b67ffffffffffffffff81111561207b5761207a612f1f565b5b6040519080825280601f01601f1916602001820160405280156120ad5781602001600182028036833780820191505090505b5090507f3000000000000000000000000000000000000000000000000000000000000000816000815181106120e5576120e4612ef0565b5b60200101907effffffffffffffffffffffffffffffffffffffffffffffffffffffffffffff1916908160001a9053507f78000000000000000000000000000000000000000000000000000000000000008160018151811061214957612148612ef0565b5b60200101907effffffffffffffffffffffffffffffffffffffffffffffffffffffffffffff1916908160001a905350600060018460026121899190612cbb565b6121939190612c65565b90505b6001811115612233577f3031323334353637383961626364656600000000000000000000000000000000600f8616601081106121d5576121d4612ef0565b5b1a60f81b8282815181106121ec576121eb612ef0565b5b60200101907effffffffffffffffffffffffffffffffffffffffffffffffffffffffffffff1916908160001a905350600485901c94508061222c90612e07565b9050612196565b5060008414612277576040517f08c379a000000000000000000000000000000000000000000000000000000000815260040161226e90612968565b60405180910390fd5b8091505092915050565b505050565b60008135905061229581613573565b92915050565b6000813590506122aa8161358a565b92915050565b6000813590506122bf816135a1565b92915050565b6000813590506122d4816135b8565b92915050565b6000602082840312156122f0576122ef612f4e565b5b60006122fe84828501612286565b91505092915050565b6000806040838503121561231e5761231d612f4e565b5b600061232c85828601612286565b925050602061233d85828601612286565b9150509250929050565b6000806000606084860312156123605761235f612f4e565b5b600061236e86828701612286565b935050602061237f86828701612286565b9250506040612390868287016122c5565b9150509250925092565b600080604083850312156123b1576123b0612f4e565b5b60006123bf85828601612286565b92505060206123d0858286016122c5565b9150509250929050565b6000602082840312156123f0576123ef612f4e565b5b60006123fe8482850161229b565b91505092915050565b6000806040838503121561241e5761241d612f4e565b5b600061242c8582860161229b565b925050602061243d85828601612286565b9150509250929050565b6000806040838503121561245e5761245d612f4e565b5b600061246c8582860161229b565b925050602061247d858286016122c5565b9150509250929050565b60006020828403121561249d5761249c612f4e565b5b60006124ab848285016122b0565b91505092915050565b6000602082840312156124ca576124c9612f4e565b5b60006124d8848285016122c5565b91505092915050565b6124ea81612d49565b82525050565b6124f981612d5b565b82525050565b61250881612d67565b82525050565b600061251982612c3e565b6125238185612c49565b9350612533818560208601612dd4565b61253c81612f53565b840191505092915050565b600061255282612c3e565b61255c8185612c5a565b935061256c818560208601612dd4565b80840191505092915050565b6000612585602083612c49565b915061259082612f64565b602082019050919050565b60006125a8602383612c49565b91506125b382612f8d565b604082019050919050565b60006125cb601483612c49565b91506125d682612fdc565b602082019050919050565b60006125ee602283612c49565b91506125f982613005565b604082019050919050565b6000612611603983612c49565b915061261c82613054565b604082019050919050565b6000612634602283612c49565b915061263f826130a3565b604082019050919050565b6000612657602683612c49565b9150612662826130f2565b604082019050919050565b600061267a601083612c49565b915061268582613141565b602082019050919050565b600061269d602883612c49565b91506126a88261316a565b604082019050919050565b60006126c0603683612c49565b91506126cb826131b9565b604082019050919050565b60006126e3602483612c49565b91506126ee82613208565b604082019050919050565b6000612706602183612c49565b915061271182613257565b604082019050919050565b6000612729602583612c49565b9150612734826132a6565b604082019050919050565b600061274c601983612c49565b9150612757826132f5565b602082019050919050565b600061276f602483612c49565b915061277a8261331e565b604082019050919050565b6000612792603783612c49565b915061279d8261336d565b604082019050919050565b60006127b5603c83612c49565b91506127c0826133bc565b604082019050919050565b60006127d8601783612c5a565b91506127e38261340b565b601782019050919050565b60006127fb602583612c49565b915061280682613434565b604082019050919050565b600061281e601183612c5a565b915061282982613483565b601182019050919050565b6000612841602f83612c49565b915061284c826134ac565b604082019050919050565b6000612864601f83612c49565b915061286f826134fb565b602082019050919050565b6000612887602a83612c49565b915061289282613524565b604082019050919050565b6128a681612dbd565b82525050565b6128b581612dc7565b82525050565b60006128c6826127cb565b91506128d28285612547565b91506128dd82612811565b91506128e98284612547565b91508190509392505050565b600060208201905061290a60008301846124e1565b92915050565b600060208201905061292560008301846124f0565b92915050565b600060208201905061294060008301846124ff565b92915050565b60006020820190508181036000830152612960818461250e565b905092915050565b6000602082019050818103600083015261298181612578565b9050919050565b600060208201905081810360008301526129a18161259b565b9050919050565b600060208201905081810360008301526129c1816125be565b9050919050565b600060208201905081810360008301526129e1816125e1565b9050919050565b60006020820190508181036000830152612a0181612604565b9050919050565b60006020820190508181036000830152612a2181612627565b9050919050565b60006020820190508181036000830152612a418161264a565b9050919050565b60006020820190508181036000830152612a618161266d565b9050919050565b60006020820190508181036000830152612a8181612690565b9050919050565b60006020820190508181036000830152612aa1816126b3565b9050919050565b60006020820190508181036000830152612ac1816126d6565b9050919050565b60006020820190508181036000830152612ae1816126f9565b9050919050565b60006020820190508181036000830152612b018161271c565b9050919050565b60006020820190508181036000830152612b218161273f565b9050919050565b60006020820190508181036000830152612b4181612762565b9050919050565b60006020820190508181036000830152612b6181612785565b9050919050565b60006020820190508181036000830152612b81816127a8565b9050919050565b60006020820190508181036000830152612ba1816127ee565b9050919050565b60006020820190508181036000830152612bc181612834565b9050919050565b60006020820190508181036000830152612be181612857565b9050919050565b60006020820190508181036000830152612c018161287a565b9050919050565b6000602082019050612c1d600083018461289d565b92915050565b6000602082019050612c3860008301846128ac565b92915050565b600081519050919050565b600082825260208201905092915050565b600081905092915050565b6000612c7082612dbd565b9150612c7b83612dbd565b9250827fffffffffffffffffffffffffffffffffffffffffffffffffffffffffffffffff03821115612cb057612caf612e63565b5b828201905092915050565b6000612cc682612dbd565b9150612cd183612dbd565b9250817fffffffffffffffffffffffffffffffffffffffffffffffffffffffffffffffff0483118215151615612d0a57612d09612e63565b5b828202905092915050565b6000612d2082612dbd565b9150612d2b83612dbd565b925082821015612d3e57612d3d612e63565b5b828203905092915050565b6000612d5482612d9d565b9050919050565b60008115159050919050565b6000819050919050565b60007fffffffff0000000000000000000000000000000000000000000000000000000082169050919050565b600073ffffffffffffffffffffffffffffffffffffffff82169050919050565b6000819050919050565b600060ff82169050919050565b60005b83811015612df2578082015181840152602081019050612dd7565b83811115612e01576000848401525b50505050565b6000612e1282612dbd565b91506000821415612e2657612e25612e63565b5b600182039050919050565b60006002820490506001821680612e4957607f821691505b60208210811415612e5d57612e5c612e92565b5b50919050565b7f4e487b7100000000000000000000000000000000000000000000000000000000600052601160045260246000fd5b7f4e487b7100000000000000000000000000000000000000000000000000000000600052602260045260246000fd5b7f4e487b7100000000000000000000000000000000000000000000000000000000600052603160045260246000fd5b7f4e487b7100000000000000000000000000000000000000000000000000000000600052603260045260246000fd5b7f4e487b7100000000000000000000000000000000000000000000000000000000600052604160045260246000fd5b600080fd5b6000601f19601f8301169050919050565b7f537472696e67733a20686578206c656e67746820696e73756666696369656e74600082015250565b7f45524332303a207472616e7366657220746f20746865207a65726f206164647260008201527f6573730000000000000000000000000000000000000000000000000000000000602082015250565b7f5061757361626c653a206e6f7420706175736564000000000000000000000000600082015250565b7f45524332303a206275726e20616d6f756e7420657863656564732062616c616e60008201527f6365000000000000000000000000000000000000000000000000000000000000602082015250565b7f45524332305072657365744d696e7465725061757365723a206d75737420686160008201527f76652070617573657220726f6c6520746f20756e706175736500000000000000602082015250565b7f45524332303a20617070726f766520746f20746865207a65726f20616464726560008201527f7373000000000000000000000000000000000000000000000000000000000000602082015250565b7f45524332303a207472616e7366657220616d6f756e742065786365656473206260008201527f616c616e63650000000000000000000000000000000000000000000000000000602082015250565b7f5061757361626c653a2070617573656400000000000000000000000000000000600082015250565b7f45524332303a207472616e7366657220616d6f756e742065786365656473206160008201527f6c6c6f77616e6365000000000000000000000000000000000000000000000000602082015250565b7f45524332305072657365744d696e7465725061757365723a206d75737420686160008201527f7665206d696e74657220726f6c6520746f206d696e7400000000000000000000602082015250565b7f45524332303a206275726e20616d6f756e74206578636565647320616c6c6f7760008201527f616e636500000000000000000000000000000000000000000000000000000000602082015250565b7f45524332303a206275726e2066726f6d20746865207a65726f2061646472657360008201527f7300000000000000000000000000000000000000000000000000000000000000602082015250565b7f45524332303a207472616e736665722066726f6d20746865207a65726f20616460008201527f6472657373000000000000000000000000000000000000000000000000000000602082015250565b7f45524332304361707065643a2063617020657863656564656400000000000000600082015250565b7f45524332303a20617070726f76652066726f6d20746865207a65726f2061646460008201527f7265737300000000000000000000000000000000000000000000000000000000602082015250565b7f45524332305072657365744d696e7465725061757365723a206d75737420686160008201527f76652070617573657220726f6c6520746f207061757365000000000000000000602082015250565b7f45524332305072657365744d696e7465725061757365723a206d75737420686160008201527f76652063617070657220726f6c6520746f206d6f646966792063617000000000602082015250565b7f416363657373436f6e74726f6c3a206163636f756e7420000000000000000000600082015250565b7f45524332303a2064656372656173656420616c6c6f77616e63652062656c6f7760008201527f207a65726f000000000000000000000000000000000000000000000000000000602082015250565b7f206973206d697373696e6720726f6c6520000000000000000000000000000000600082015250565b7f416363657373436f6e74726f6c3a2063616e206f6e6c792072656e6f756e636560008201527f20726f6c657320666f722073656c660000000000000000000000000000000000602082015250565b7f45524332303a206d696e7420746f20746865207a65726f206164647265737300600082015250565b7f45524332305061757361626c653a20746f6b656e207472616e7366657220776860008201527f696c652070617573656400000000000000000000000000000000000000000000602082015250565b61357c81612d49565b811461358757600080fd5b50565b61359381612d67565b811461359e57600080fd5b50565b6135aa81612d71565b81146135b557600080fd5b50565b6135c181612dbd565b81146135cc57600080fd5b5056fea2646970667358221220ee250281c87566ee619fa84cbc5bf186858118b32f92091c042f2417d966faf464736f6c63430008070033",
  "immutableReferences": {},
  "source": "// SPDX-License-Identifier: MIT\n\npragma solidity ^0.8.0;\n\nimport \"../node_modules/@openzeppelin/contracts/token/ERC20/ERC20.sol\";\nimport \"../node_modules/@openzeppelin/contracts/token/ERC20/extensions/ERC20Burnable.sol\";\nimport \"../node_modules/@openzeppelin/contracts/token/ERC20/extensions/ERC20Pausable.sol\";\nimport \"../node_modules/@openzeppelin/contracts/access/AccessControlEnumerable.sol\";\nimport \"../node_modules/@openzeppelin/contracts/utils/Context.sol\";\n\n/**\n * @dev {ERC20} token, including:\n *\n *  - ability for holders to burn (destroy) their tokens\n *  - a minter role that allows for token minting (creation)\n *  - a pauser role that allows to stop all token transfers\n *\n * This contract uses {AccessControl} to lock permissioned functions using the\n * different roles - head to its documentation for details.\n *\n * The account that deploys the contract will be granted the minter and pauser\n * roles, as well as the default admin role, which will let it grant both minter\n * and pauser roles to other accounts.\n */\ncontract CapperToken is Context, AccessControlEnumerable, ERC20Burnable, ERC20Pausable {\n    bytes32 public constant MINTER_ROLE = keccak256(\"MINTER_ROLE\");\n    bytes32 public constant PAUSER_ROLE = keccak256(\"PAUSER_ROLE\");\n    bytes32 public constant CAPPER_ROLE = keccak256(\"CAPPER_ROLE\");\n    uint256 private _cap;\n\n    /**\n     * @dev Grants `DEFAULT_ADMIN_ROLE`, `MINTER_ROLE` and `PAUSER_ROLE` to the\n     * account that deploys the contract. Sets the value of the `cap`. This\n     * value is immutable, it can only be set once during construction.\n     *\n     * See {ERC20-constructor}.\n     */\n    constructor(string memory name, string memory symbol, uint256 cap_) ERC20(name, symbol) {\n        require(cap_ > 0, \"ERC20Capped: cap is 0\");\n        _cap = cap_;\n\n        _setupRole(DEFAULT_ADMIN_ROLE, _msgSender());\n\n        _setupRole(MINTER_ROLE, _msgSender());\n        _setupRole(PAUSER_ROLE, _msgSender());\n        _setupRole(CAPPER_ROLE, _msgSender());\n    }\n\n    /**\n     * @dev Creates `amount` new tokens for `to`.\n     *\n     * See {ERC20-_mint}.\n     *\n     * Requirements:\n     *\n     * - the caller must have the `MINTER_ROLE`.\n     */\n    function mint(address to, uint256 amount) public virtual {\n        require(hasRole(MINTER_ROLE, _msgSender()), \"ERC20PresetMinterPauser: must have minter role to mint\");\n        _mint(to, amount);\n    }\n\n    /**\n     * @dev Pauses all token transfers.\n     *\n     * See {ERC20Pausable} and {Pausable-_pause}.\n     *\n     * Requirements:\n     *\n     * - the caller must have the `PAUSER_ROLE`.\n     */\n    function pause() public virtual {\n        require(hasRole(PAUSER_ROLE, _msgSender()), \"ERC20PresetMinterPauser: must have pauser role to pause\");\n        _pause();\n    }\n\n    /**\n     * @dev Unpauses all token transfers.\n     *\n     * See {ERC20Pausable} and {Pausable-_unpause}.\n     *\n     * Requirements:\n     *\n     * - the caller must have the `PAUSER_ROLE`.\n     */\n    function unpause() public virtual {\n        require(hasRole(PAUSER_ROLE, _msgSender()), \"ERC20PresetMinterPauser: must have pauser role to unpause\");\n        _unpause();\n    }\n\n    function _beforeTokenTransfer(\n        address from,\n        address to,\n        uint256 amount\n    ) internal virtual override(ERC20, ERC20Pausable) {\n        super._beforeTokenTransfer(from, to, amount);\n    }\n\n    /**\n    * @dev Returns the cap on the token's total supply.\n    */\n    function cap() public view virtual returns (uint256) {\n        return _cap;\n    }\n\n    /**\n    * @dev See {ERC20-_mint}.\n    */\n    function _mint(address account, uint256 amount) internal virtual override {\n        require(ERC20.totalSupply() + amount <= cap(), \"ERC20Capped: cap exceeded\");\n        super._mint(account, amount);\n    }\n\n    /**\n    * @dev Modifies the cap on the token's total supply.\n    */\n    function modifyCap(uint256 cap_) public virtual {\n      require(hasRole(CAPPER_ROLE, _msgSender()), \"ERC20PresetMinterPauser: must have capper role to modify cap\");\n      _cap = cap_;\n    }\n}\n",
  "sourcePath": "/Users/local-admin/repos/ivan-smart-contracts/smart_contracts_201/token_proj/contracts/capper.sol",
  "compiler": {
    "name": "solc",
    "version": "0.8.7+commit.e28d00a7.Emscripten.clang"
  },
  "schemaVersion": "3.4.3",
  "updatedAt": "2021-08-25T14:38:15.447Z",
  "networkType": "ethereum",
  "devdoc": {
    "details": "{ERC20} token, including:  - ability for holders to burn (destroy) their tokens  - a minter role that allows for token minting (creation)  - a pauser role that allows to stop all token transfers This contract uses {AccessControl} to lock permissioned functions using the different roles - head to its documentation for details. The account that deploys the contract will be granted the minter and pauser roles, as well as the default admin role, which will let it grant both minter and pauser roles to other accounts.",
    "kind": "dev",
    "methods": {
      "allowance(address,address)": {
        "details": "See {IERC20-allowance}."
      },
      "approve(address,uint256)": {
        "details": "See {IERC20-approve}. Requirements: - `spender` cannot be the zero address."
      },
      "balanceOf(address)": {
        "details": "See {IERC20-balanceOf}."
      },
      "burn(uint256)": {
        "details": "Destroys `amount` tokens from the caller. See {ERC20-_burn}."
      },
      "burnFrom(address,uint256)": {
        "details": "Destroys `amount` tokens from `account`, deducting from the caller's allowance. See {ERC20-_burn} and {ERC20-allowance}. Requirements: - the caller must have allowance for ``accounts``'s tokens of at least `amount`."
      },
      "cap()": {
        "details": "Returns the cap on the token's total supply."
      },
      "constructor": {
        "details": "Grants `DEFAULT_ADMIN_ROLE`, `MINTER_ROLE` and `PAUSER_ROLE` to the account that deploys the contract. Sets the value of the `cap`. This value is immutable, it can only be set once during construction. See {ERC20-constructor}."
      },
      "decimals()": {
        "details": "Returns the number of decimals used to get its user representation. For example, if `decimals` equals `2`, a balance of `505` tokens should be displayed to a user as `5.05` (`505 / 10 ** 2`). Tokens usually opt for a value of 18, imitating the relationship between Ether and Wei. This is the value {ERC20} uses, unless this function is overridden; NOTE: This information is only used for _display_ purposes: it in no way affects any of the arithmetic of the contract, including {IERC20-balanceOf} and {IERC20-transfer}."
      },
      "decreaseAllowance(address,uint256)": {
        "details": "Atomically decreases the allowance granted to `spender` by the caller. This is an alternative to {approve} that can be used as a mitigation for problems described in {IERC20-approve}. Emits an {Approval} event indicating the updated allowance. Requirements: - `spender` cannot be the zero address. - `spender` must have allowance for the caller of at least `subtractedValue`."
      },
      "getRoleAdmin(bytes32)": {
        "details": "Returns the admin role that controls `role`. See {grantRole} and {revokeRole}. To change a role's admin, use {_setRoleAdmin}."
      },
      "getRoleMember(bytes32,uint256)": {
        "details": "Returns one of the accounts that have `role`. `index` must be a value between 0 and {getRoleMemberCount}, non-inclusive. Role bearers are not sorted in any particular way, and their ordering may change at any point. WARNING: When using {getRoleMember} and {getRoleMemberCount}, make sure you perform all queries on the same block. See the following https://forum.openzeppelin.com/t/iterating-over-elements-on-enumerableset-in-openzeppelin-contracts/2296[forum post] for more information."
      },
      "getRoleMemberCount(bytes32)": {
        "details": "Returns the number of accounts that have `role`. Can be used together with {getRoleMember} to enumerate all bearers of a role."
      },
      "grantRole(bytes32,address)": {
        "details": "Overload {grantRole} to track enumerable memberships"
      },
      "hasRole(bytes32,address)": {
        "details": "Returns `true` if `account` has been granted `role`."
      },
      "increaseAllowance(address,uint256)": {
        "details": "Atomically increases the allowance granted to `spender` by the caller. This is an alternative to {approve} that can be used as a mitigation for problems described in {IERC20-approve}. Emits an {Approval} event indicating the updated allowance. Requirements: - `spender` cannot be the zero address."
      },
      "mint(address,uint256)": {
        "details": "Creates `amount` new tokens for `to`. See {ERC20-_mint}. Requirements: - the caller must have the `MINTER_ROLE`."
      },
      "modifyCap(uint256)": {
        "details": "Modifies the cap on the token's total supply."
      },
      "name()": {
        "details": "Returns the name of the token."
      },
      "pause()": {
        "details": "Pauses all token transfers. See {ERC20Pausable} and {Pausable-_pause}. Requirements: - the caller must have the `PAUSER_ROLE`."
      },
      "paused()": {
        "details": "Returns true if the contract is paused, and false otherwise."
      },
      "renounceRole(bytes32,address)": {
        "details": "Overload {renounceRole} to track enumerable memberships"
      },
      "revokeRole(bytes32,address)": {
        "details": "Overload {revokeRole} to track enumerable memberships"
      },
      "supportsInterface(bytes4)": {
        "details": "See {IERC165-supportsInterface}."
      },
      "symbol()": {
        "details": "Returns the symbol of the token, usually a shorter version of the name."
      },
      "totalSupply()": {
        "details": "See {IERC20-totalSupply}."
      },
      "transfer(address,uint256)": {
        "details": "See {IERC20-transfer}. Requirements: - `recipient` cannot be the zero address. - the caller must have a balance of at least `amount`."
      },
      "transferFrom(address,address,uint256)": {
        "details": "See {IERC20-transferFrom}. Emits an {Approval} event indicating the updated allowance. This is not required by the EIP. See the note at the beginning of {ERC20}. Requirements: - `sender` and `recipient` cannot be the zero address. - `sender` must have a balance of at least `amount`. - the caller must have allowance for ``sender``'s tokens of at least `amount`."
      },
      "unpause()": {
        "details": "Unpauses all token transfers. See {ERC20Pausable} and {Pausable-_unpause}. Requirements: - the caller must have the `PAUSER_ROLE`."
      }
    },
    "version": 1
  },
  "userdoc": {
    "kind": "user",
    "methods": {},
    "version": 1
  }
}