{
  "contractName": "MyToken",
  "abi": [
    {
      "inputs": [],
      "stateMutability": "nonpayable",
      "type": "constructor"
    },
    {
      "anonymous": false,
      "inputs": [
        {
          "indexed": true,
          "internalType": "address",
          "name": "owner",
          "type": "address"
        },
        {
          "indexed": true,
          "internalType": "address",
          "name": "spender",
          "type": "address"
        },
        {
          "indexed": false,
          "internalType": "uint256",
          "name": "value",
          "type": "uint256"
        }
      ],
      "name": "Approval",
      "type": "event"
    },
    {
      "anonymous": false,
      "inputs": [
        {
          "indexed": true,
          "internalType": "address",
          "name": "from",
          "type": "address"
        },
        {
          "indexed": true,
          "internalType": "address",
          "name": "to",
          "type": "address"
        },
        {
          "indexed": false,
          "internalType": "uint256",
          "name": "value",
          "type": "uint256"
        }
      ],
      "name": "Transfer",
      "type": "event"
    },
    {
      "inputs": [
        {
          "internalType": "address",
          "name": "owner",
          "type": "address"
        },
        {
          "internalType": "address",
          "name": "spender",
          "type": "address"
        }
      ],
      "name": "allowance",
      "outputs": [
        {
          "internalType": "uint256",
          "name": "",
          "type": "uint256"
        }
      ],
      "stateMutability": "view",
      "type": "function",
      "constant": true
    },
    {
      "inputs": [
        {
          "internalType": "address",
          "name": "spender",
          "type": "address"
        },
        {
          "internalType": "uint256",
          "name": "amount",
          "type": "uint256"
        }
      ],
      "name": "approve",
      "outputs": [
        {
          "internalType": "bool",
          "name": "",
          "type": "bool"
        }
      ],
      "stateMutability": "nonpayable",
      "type": "function"
    },
    {
      "inputs": [
        {
          "internalType": "address",
          "name": "account",
          "type": "address"
        }
      ],
      "name": "balanceOf",
      "outputs": [
        {
          "internalType": "uint256",
          "name": "",
          "type": "uint256"
        }
      ],
      "stateMutability": "view",
      "type": "function",
      "constant": true
    },
    {
      "inputs": [],
      "name": "cap",
      "outputs": [
        {
          "internalType": "uint256",
          "name": "",
          "type": "uint256"
        }
      ],
      "stateMutability": "view",
      "type": "function",
      "constant": true
    },
    {
      "inputs": [],
      "name": "decimals",
      "outputs": [
        {
          "internalType": "uint8",
          "name": "",
          "type": "uint8"
        }
      ],
      "stateMutability": "view",
      "type": "function",
      "constant": true
    },
    {
      "inputs": [
        {
          "internalType": "address",
          "name": "spender",
          "type": "address"
        },
        {
          "internalType": "uint256",
          "name": "subtractedValue",
          "type": "uint256"
        }
      ],
      "name": "decreaseAllowance",
      "outputs": [
        {
          "internalType": "bool",
          "name": "",
          "type": "bool"
        }
      ],
      "stateMutability": "nonpayable",
      "type": "function"
    },
    {
      "inputs": [
        {
          "internalType": "address",
          "name": "spender",
          "type": "address"
        },
        {
          "internalType": "uint256",
          "name": "addedValue",
          "type": "uint256"
        }
      ],
      "name": "increaseAllowance",
      "outputs": [
        {
          "internalType": "bool",
          "name": "",
          "type": "bool"
        }
      ],
      "stateMutability": "nonpayable",
      "type": "function"
    },
    {
      "inputs": [],
      "name": "name",
      "outputs": [
        {
          "internalType": "string",
          "name": "",
          "type": "string"
        }
      ],
      "stateMutability": "view",
      "type": "function",
      "constant": true
    },
    {
      "inputs": [],
      "name": "symbol",
      "outputs": [
        {
          "internalType": "string",
          "name": "",
          "type": "string"
        }
      ],
      "stateMutability": "view",
      "type": "function",
      "constant": true
    },
    {
      "inputs": [],
      "name": "totalSupply",
      "outputs": [
        {
          "internalType": "uint256",
          "name": "",
          "type": "uint256"
        }
      ],
      "stateMutability": "view",
      "type": "function",
      "constant": true
    },
    {
      "inputs": [
        {
          "internalType": "address",
          "name": "recipient",
          "type": "address"
        },
        {
          "internalType": "uint256",
          "name": "amount",
          "type": "uint256"
        }
      ],
      "name": "transfer",
      "outputs": [
        {
          "internalType": "bool",
          "name": "",
          "type": "bool"
        }
      ],
      "stateMutability": "nonpayable",
      "type": "function"
    },
    {
      "inputs": [
        {
          "internalType": "address",
          "name": "sender",
          "type": "address"
        },
        {
          "internalType": "address",
          "name": "recipient",
          "type": "address"
        },
        {
          "internalType": "uint256",
          "name": "amount",
          "type": "uint256"
        }
      ],
      "name": "transferFrom",
      "outputs": [
        {
          "internalType": "bool",
          "name": "",
          "type": "bool"
        }
      ],
      "stateMutability": "nonpayable",
      "type": "function"
    },
    {
      "inputs": [
        {
          "internalType": "uint256",
          "name": "amount",
          "type": "uint256"
        }
      ],
      "name": "mint",
      "outputs": [],
      "stateMutability": "nonpayable",
      "type": "function"
    }
  ],
  "bytecode": "0x60a06040523480156200001157600080fd5b50620186a06040518060400160405280600781526020017f4d79546f6b656e000000000000000000000000000000000000000000000000008152506040518060400160405280600481526020017f4d544b4e0000000000000000000000000000000000000000000000000000000081525081600390805190602001906200009a9291906200010b565b508060049080519060200190620000b39291906200010b565b50505060008111620000fc576040517f08c379a0000000000000000000000000000000000000000000000000000000008152600401620000f390620001e2565b60405180910390fd5b806080818152505050620002a3565b828054620001199062000215565b90600052602060002090601f0160209004810192826200013d576000855562000189565b82601f106200015857805160ff191683800117855562000189565b8280016001018555821562000189579182015b82811115620001885782518255916020019190600101906200016b565b5b5090506200019891906200019c565b5090565b5b80821115620001b75760008160009055506001016200019d565b5090565b6000620001ca60158362000204565b9150620001d7826200027a565b602082019050919050565b60006020820190508181036000830152620001fd81620001bb565b9050919050565b600082825260208201905092915050565b600060028204905060018216806200022e57607f821691505b602082108114156200024557620002446200024b565b5b50919050565b7f4e487b7100000000000000000000000000000000000000000000000000000000600052602260045260246000fd5b7f45524332304361707065643a2063617020697320300000000000000000000000600082015250565b60805161170e620002bf6000396000610495015261170e6000f3fe608060405234801561001057600080fd5b50600436106100cf5760003560e01c8063395093511161008c578063a0712d6811610066578063a0712d681461022a578063a457c2d714610246578063a9059cbb14610276578063dd62ed3e146102a6576100cf565b806339509351146101ac57806370a08231146101dc57806395d89b411461020c576100cf565b806306fdde03146100d4578063095ea7b3146100f257806318160ddd1461012257806323b872dd14610140578063313ce56714610170578063355274ea1461018e575b600080fd5b6100dc6102d6565b6040516100e99190611117565b60405180910390f35b61010c60048036038101906101079190610eee565b610368565b60405161011991906110fc565b60405180910390f35b61012a610386565b6040516101379190611259565b60405180910390f35b61015a60048036038101906101559190610e9b565b610390565b60405161016791906110fc565b60405180910390f35b610178610488565b6040516101859190611274565b60405180910390f35b610196610491565b6040516101a39190611259565b60405180910390f35b6101c660048036038101906101c19190610eee565b6104b9565b6040516101d391906110fc565b60405180910390f35b6101f660048036038101906101f19190610e2e565b610565565b6040516102039190611259565b60405180910390f35b6102146105ad565b6040516102219190611117565b60405180910390f35b610244600480360381019061023f9190610f2e565b61063f565b005b610260600480360381019061025b9190610eee565b61064c565b60405161026d91906110fc565b60405180910390f35b610290600480360381019061028b9190610eee565b610737565b60405161029d91906110fc565b60405180910390f35b6102c060048036038101906102bb9190610e5b565b610755565b6040516102cd9190611259565b60405180910390f35b6060600380546102e590611389565b80601f016020809104026020016040519081016040528092919081815260200182805461031190611389565b801561035e5780601f106103335761010080835404028352916020019161035e565b820191906000526020600020905b81548152906001019060200180831161034157829003601f168201915b5050505050905090565b600061037c6103756107dc565b84846107e4565b6001905092915050565b6000600254905090565b600061039d8484846109af565b6000600160008673ffffffffffffffffffffffffffffffffffffffff1673ffffffffffffffffffffffffffffffffffffffff16815260200190815260200160002060006103e86107dc565b73ffffffffffffffffffffffffffffffffffffffff1673ffffffffffffffffffffffffffffffffffffffff16815260200190815260200160002054905082811015610468576040517f08c379a000000000000000000000000000000000000000000000000000000000815260040161045f90611199565b60405180910390fd5b61047c856104746107dc565b8584036107e4565b60019150509392505050565b60006012905090565b60007f0000000000000000000000000000000000000000000000000000000000000000905090565b600061055b6104c66107dc565b8484600160006104d46107dc565b73ffffffffffffffffffffffffffffffffffffffff1673ffffffffffffffffffffffffffffffffffffffff16815260200190815260200160002060008873ffffffffffffffffffffffffffffffffffffffff1673ffffffffffffffffffffffffffffffffffffffff1681526020019081526020016000205461055691906112ab565b6107e4565b6001905092915050565b60008060008373ffffffffffffffffffffffffffffffffffffffff1673ffffffffffffffffffffffffffffffffffffffff168152602001908152602001600020549050919050565b6060600480546105bc90611389565b80601f01602080910402602001604051908101604052809291908181526020018280546105e890611389565b80156106355780601f1061060a57610100808354040283529160200191610635565b820191906000526020600020905b81548152906001019060200180831161061857829003601f168201915b5050505050905090565b6106493382610c30565b50565b6000806001600061065b6107dc565b73ffffffffffffffffffffffffffffffffffffffff1673ffffffffffffffffffffffffffffffffffffffff16815260200190815260200160002060008573ffffffffffffffffffffffffffffffffffffffff1673ffffffffffffffffffffffffffffffffffffffff16815260200190815260200160002054905082811015610718576040517f08c379a000000000000000000000000000000000000000000000000000000000815260040161070f90611219565b60405180910390fd5b61072c6107236107dc565b858584036107e4565b600191505092915050565b600061074b6107446107dc565b84846109af565b6001905092915050565b6000600160008473ffffffffffffffffffffffffffffffffffffffff1673ffffffffffffffffffffffffffffffffffffffff16815260200190815260200160002060008373ffffffffffffffffffffffffffffffffffffffff1673ffffffffffffffffffffffffffffffffffffffff16815260200190815260200160002054905092915050565b600033905090565b600073ffffffffffffffffffffffffffffffffffffffff168373ffffffffffffffffffffffffffffffffffffffff161415610854576040517f08c379a000000000000000000000000000000000000000000000000000000000815260040161084b906111f9565b60405180910390fd5b600073ffffffffffffffffffffffffffffffffffffffff168273ffffffffffffffffffffffffffffffffffffffff1614156108c4576040517f08c379a00000000000000000000000000000000000000000000000000000000081526004016108bb90611159565b60405180910390fd5b80600160008573ffffffffffffffffffffffffffffffffffffffff1673ffffffffffffffffffffffffffffffffffffffff16815260200190815260200160002060008473ffffffffffffffffffffffffffffffffffffffff1673ffffffffffffffffffffffffffffffffffffffff168152602001908152602001600020819055508173ffffffffffffffffffffffffffffffffffffffff168373ffffffffffffffffffffffffffffffffffffffff167f8c5be1e5ebec7d5bd14f71427d1e84f3dd0314c0f7b2291e5b200ac8c7c3b925836040516109a29190611259565b60405180910390a3505050565b600073ffffffffffffffffffffffffffffffffffffffff168373ffffffffffffffffffffffffffffffffffffffff161415610a1f576040517f08c379a0000000000000000000000000000000000000000000000000000000008152600401610a16906111b9565b60405180910390fd5b600073ffffffffffffffffffffffffffffffffffffffff168273ffffffffffffffffffffffffffffffffffffffff161415610a8f576040517f08c379a0000000000000000000000000000000000000000000000000000000008152600401610a8690611139565b60405180910390fd5b610a9a838383610c9a565b60008060008573ffffffffffffffffffffffffffffffffffffffff1673ffffffffffffffffffffffffffffffffffffffff16815260200190815260200160002054905081811015610b20576040517f08c379a0000000000000000000000000000000000000000000000000000000008152600401610b1790611179565b60405180910390fd5b8181036000808673ffffffffffffffffffffffffffffffffffffffff1673ffffffffffffffffffffffffffffffffffffffff16815260200190815260200160002081905550816000808573ffffffffffffffffffffffffffffffffffffffff1673ffffffffffffffffffffffffffffffffffffffff1681526020019081526020016000206000828254610bb391906112ab565b925050819055508273ffffffffffffffffffffffffffffffffffffffff168473ffffffffffffffffffffffffffffffffffffffff167fddf252ad1be2c89b69c2b068fc378daa952ba7f163c4a11628f55a4df523b3ef84604051610c179190611259565b60405180910390a3610c2a848484610c9f565b50505050565b610c38610491565b81610c41610386565b610c4b91906112ab565b1115610c8c576040517f08c379a0000000000000000000000000000000000000000000000000000000008152600401610c83906111d9565b60405180910390fd5b610c968282610ca4565b5050565b505050565b505050565b600073ffffffffffffffffffffffffffffffffffffffff168273ffffffffffffffffffffffffffffffffffffffff161415610d14576040517f08c379a0000000000000000000000000000000000000000000000000000000008152600401610d0b90611239565b60405180910390fd5b610d2060008383610c9a565b8060026000828254610d3291906112ab565b92505081905550806000808473ffffffffffffffffffffffffffffffffffffffff1673ffffffffffffffffffffffffffffffffffffffff1681526020019081526020016000206000828254610d8791906112ab565b925050819055508173ffffffffffffffffffffffffffffffffffffffff16600073ffffffffffffffffffffffffffffffffffffffff167fddf252ad1be2c89b69c2b068fc378daa952ba7f163c4a11628f55a4df523b3ef83604051610dec9190611259565b60405180910390a3610e0060008383610c9f565b5050565b600081359050610e13816116aa565b92915050565b600081359050610e28816116c1565b92915050565b600060208284031215610e4457610e43611419565b5b6000610e5284828501610e04565b91505092915050565b60008060408385031215610e7257610e71611419565b5b6000610e8085828601610e04565b9250506020610e9185828601610e04565b9150509250929050565b600080600060608486031215610eb457610eb3611419565b5b6000610ec286828701610e04565b9350506020610ed386828701610e04565b9250506040610ee486828701610e19565b9150509250925092565b60008060408385031215610f0557610f04611419565b5b6000610f1385828601610e04565b9250506020610f2485828601610e19565b9150509250929050565b600060208284031215610f4457610f43611419565b5b6000610f5284828501610e19565b91505092915050565b610f6481611313565b82525050565b6000610f758261128f565b610f7f818561129a565b9350610f8f818560208601611356565b610f988161141e565b840191505092915050565b6000610fb060238361129a565b9150610fbb8261142f565b604082019050919050565b6000610fd360228361129a565b9150610fde8261147e565b604082019050919050565b6000610ff660268361129a565b9150611001826114cd565b604082019050919050565b600061101960288361129a565b91506110248261151c565b604082019050919050565b600061103c60258361129a565b91506110478261156b565b604082019050919050565b600061105f60198361129a565b915061106a826115ba565b602082019050919050565b600061108260248361129a565b915061108d826115e3565b604082019050919050565b60006110a560258361129a565b91506110b082611632565b604082019050919050565b60006110c8601f8361129a565b91506110d382611681565b602082019050919050565b6110e78161133f565b82525050565b6110f681611349565b82525050565b60006020820190506111116000830184610f5b565b92915050565b600060208201905081810360008301526111318184610f6a565b905092915050565b6000602082019050818103600083015261115281610fa3565b9050919050565b6000602082019050818103600083015261117281610fc6565b9050919050565b6000602082019050818103600083015261119281610fe9565b9050919050565b600060208201905081810360008301526111b28161100c565b9050919050565b600060208201905081810360008301526111d28161102f565b9050919050565b600060208201905081810360008301526111f281611052565b9050919050565b6000602082019050818103600083015261121281611075565b9050919050565b6000602082019050818103600083015261123281611098565b9050919050565b60006020820190508181036000830152611252816110bb565b9050919050565b600060208201905061126e60008301846110de565b92915050565b600060208201905061128960008301846110ed565b92915050565b600081519050919050565b600082825260208201905092915050565b60006112b68261133f565b91506112c18361133f565b9250827fffffffffffffffffffffffffffffffffffffffffffffffffffffffffffffffff038211156112f6576112f56113bb565b5b828201905092915050565b600061130c8261131f565b9050919050565b60008115159050919050565b600073ffffffffffffffffffffffffffffffffffffffff82169050919050565b6000819050919050565b600060ff82169050919050565b60005b83811015611374578082015181840152602081019050611359565b83811115611383576000848401525b50505050565b600060028204905060018216806113a157607f821691505b602082108114156113b5576113b46113ea565b5b50919050565b7f4e487b7100000000000000000000000000000000000000000000000000000000600052601160045260246000fd5b7f4e487b7100000000000000000000000000000000000000000000000000000000600052602260045260246000fd5b600080fd5b6000601f19601f8301169050919050565b7f45524332303a207472616e7366657220746f20746865207a65726f206164647260008201527f6573730000000000000000000000000000000000000000000000000000000000602082015250565b7f45524332303a20617070726f766520746f20746865207a65726f20616464726560008201527f7373000000000000000000000000000000000000000000000000000000000000602082015250565b7f45524332303a207472616e7366657220616d6f756e742065786365656473206260008201527f616c616e63650000000000000000000000000000000000000000000000000000602082015250565b7f45524332303a207472616e7366657220616d6f756e742065786365656473206160008201527f6c6c6f77616e6365000000000000000000000000000000000000000000000000602082015250565b7f45524332303a207472616e736665722066726f6d20746865207a65726f20616460008201527f6472657373000000000000000000000000000000000000000000000000000000602082015250565b7f45524332304361707065643a2063617020657863656564656400000000000000600082015250565b7f45524332303a20617070726f76652066726f6d20746865207a65726f2061646460008201527f7265737300000000000000000000000000000000000000000000000000000000602082015250565b7f45524332303a2064656372656173656420616c6c6f77616e63652062656c6f7760008201527f207a65726f000000000000000000000000000000000000000000000000000000602082015250565b7f45524332303a206d696e7420746f20746865207a65726f206164647265737300600082015250565b6116b381611301565b81146116be57600080fd5b50565b6116ca8161133f565b81146116d557600080fd5b5056fea2646970667358221220b7c67dd0602942dbde72c5dfd65c61c732f8d2b7e68f97251a43979507f2b4de64736f6c63430008070033",
  "immutableReferences": {
    "1534": [
      {
        "length": 32,
        "start": 1173
      }
    ]
  },
  "source": "// SPDX-License-Identifier: MIT\n\npragma solidity ^0.8.0;\n\nimport \"../node_modules/@openzeppelin/contracts/token/ERC20/extensions/ERC20Capped.sol\";\n\ncontract MyToken is ERC20Capped {\n  constructor() ERC20(\"MyToken\", \"MTKN\") ERC20Capped(100000) {}\n\n  function mint (uint256 amount) public virtual {\n    _mint(msg.sender, amount);\n  }\n}\n",
  "sourcePath": "/Users/local-admin/repos/ivan-smart-contracts/smart_contracts_201/token_proj/contracts/token.sol",
  "compiler": {
    "name": "solc",
    "version": "0.8.7+commit.e28d00a7.Emscripten.clang"
  },
  "schemaVersion": "3.4.3",
  "updatedAt": "2021-08-25T14:38:14.856Z",
  "networkType": "ethereum",
  "devdoc": {
    "kind": "dev",
    "methods": {
      "allowance(address,address)": {
        "details": "See {IERC20-allowance}."
      },
      "approve(address,uint256)": {
        "details": "See {IERC20-approve}. Requirements: - `spender` cannot be the zero address."
      },
      "balanceOf(address)": {
        "details": "See {IERC20-balanceOf}."
      },
      "cap()": {
        "details": "Returns the cap on the token's total supply."
      },
      "decimals()": {
        "details": "Returns the number of decimals used to get its user representation. For example, if `decimals` equals `2`, a balance of `505` tokens should be displayed to a user as `5.05` (`505 / 10 ** 2`). Tokens usually opt for a value of 18, imitating the relationship between Ether and Wei. This is the value {ERC20} uses, unless this function is overridden; NOTE: This information is only used for _display_ purposes: it in no way affects any of the arithmetic of the contract, including {IERC20-balanceOf} and {IERC20-transfer}."
      },
      "decreaseAllowance(address,uint256)": {
        "details": "Atomically decreases the allowance granted to `spender` by the caller. This is an alternative to {approve} that can be used as a mitigation for problems described in {IERC20-approve}. Emits an {Approval} event indicating the updated allowance. Requirements: - `spender` cannot be the zero address. - `spender` must have allowance for the caller of at least `subtractedValue`."
      },
      "increaseAllowance(address,uint256)": {
        "details": "Atomically increases the allowance granted to `spender` by the caller. This is an alternative to {approve} that can be used as a mitigation for problems described in {IERC20-approve}. Emits an {Approval} event indicating the updated allowance. Requirements: - `spender` cannot be the zero address."
      },
      "name()": {
        "details": "Returns the name of the token."
      },
      "symbol()": {
        "details": "Returns the symbol of the token, usually a shorter version of the name."
      },
      "totalSupply()": {
        "details": "See {IERC20-totalSupply}."
      },
      "transfer(address,uint256)": {
        "details": "See {IERC20-transfer}. Requirements: - `recipient` cannot be the zero address. - the caller must have a balance of at least `amount`."
      },
      "transferFrom(address,address,uint256)": {
        "details": "See {IERC20-transferFrom}. Emits an {Approval} event indicating the updated allowance. This is not required by the EIP. See the note at the beginning of {ERC20}. Requirements: - `sender` and `recipient` cannot be the zero address. - `sender` must have a balance of at least `amount`. - the caller must have allowance for ``sender``'s tokens of at least `amount`."
      }
    },
    "version": 1
  },
  "userdoc": {
    "kind": "user",
    "methods": {},
    "version": 1
  }
}